:020000040800F2
:1000000000280020090E0008390D0008410D0008E5
:10001000490D0008510D0008590D000800000000AE
:10002000000000000000000000000000610D00085A
:100030006D0D000800000000790D0008850D000816
:10004000510E0008510E0008510E0008510E000814
:10005000510E0008510E0008510E0008510E000804
:10006000510E0008510E0008510E0008510E0008F4
:10007000510E0008510E0008510E0008510E0008E4
:10008000510E0008510E0008510E0008510E0008D4
:10009000510E0008510E0008510E0008510E0008C4
:1000A000510E0008510E0008510E0008510E0008B4
:1000B000510E0008510E000800000000510E00080B
:1000C000510E00080000000000000000510E000862
:1000D00000000000510E0008510E00080000000052
:1000E000510E0008510E0008510E000800000000DB
:1000F0000000000000000000000000000000000000
:0C01000000000000000000005FF808F1A3
:10010C0010B5054C237833B9044B13B10448AFF345
:10011C0000800123237010BD5C0000200000000053
:10012C00AC31000808B5034B1BB103490348AFF3CE
:10013C00008008BD0000000060000020AC31000809
:10014C00034613F8012B002AFBD1181A013870470B
:10015C004FF0FF0C1CEAD0521EBF1CEAD15392EA9E
:10016C000C0F93EA0C0F6FD01A4480EA010C40027A
:10017C0018BF5FEA41211ED04FF0006343EA5010D4
:10018C0043EA5111A0FB01310CF00040B1F5000F16
:10019C003EBF490041EAD3715B0040EA010062F1C5
:1001AC007F02FD2A1DD8B3F1004F40EBC25008BFAF
:1001BC0020F00100704790F0000F0CF0004C08BFCD
:1001CC0049024CEA502040EA51207F3AC2BFD2F19A
:1001DC00FF0340EAC250704740F400004FF00003A8
:1001EC00013A5DDC12F1190FDCBF00F000407047E2
:1001FC00C2F10002410021FA02F1C2F1200200FA20
:10020C0002FC5FEA310040F1000053EA4C0308BFE6
:10021C0020EADC70704792F0000F00F0004C02BF37
:10022C00400010F4000F013AF9D040EA0C0093F0B2
:10023C00000F01F0004C02BF490011F4000F013B0C
:10024C00F9D041EA0C018FE70CEAD15392EA0C0F7A
:10025C0018BF93EA0C0F0AD030F0004C18BF31F0E5
:10026C00004CD8D180EA010000F00040704790F0BB
:10027C00000F17BF90F0004F084691F0000F91F05F
:10028C00004F14D092EA0C0F01D142020FD193EA25
:10029C000C0F03D14B0218BF084608D180EA0100AD
:1002AC0000F0004040F0FE4040F40000704740F089
:1002BC00FE4040F44000704780F0004002E000BF78
:1002CC0081F0004142001FBF5FEA410392EA030F35
:1002DC007FEA226C7FEA236C6AD04FEA1262D2EB7F
:1002EC001363C1BFD218414048404140B8BF5B4284
:1002FC00192B88BF704710F0004F40F4000020F01D
:10030C007F4018BF404211F0004F41F4000121F032
:10031C007F4118BF494292EA030F3FD0A2F101027C
:10032C0041FA03FC10EB0C00C3F1200301FA03F1BA
:10033C0000F0004302D5494260EB4000B0F5000FDD
:10034C0013D3B0F1807F06D340084FEA310102F19C
:10035C000102FE2A51D2B1F1004F40EBC25008BF4E
:10036C0020F0010040EA03007047490040EB000018
:10037C00013A28BFB0F5000FEDD2B0FA80FCACF119
:10038C00080CB2EB0C0200FA0CF0AABF00EBC25046
:10039C0052421843BCBFD0401843704792F0000F34
:1003AC0081F4000106BF80F400000132013BB5E787
:1003BC004FEA41037FEA226C18BF7FEA236C21D0FD
:1003CC0092EA030F04D092F0000F08BF0846704762
:1003DC0090EA010F1CBF0020704712F07F4F04D130
:1003EC00400028BF40F00040704712F100723CBF43
:1003FC0000F50000704700F0004343F0FE4040F46D
:10040C00000070477FEA226216BF08467FEA23632A
:10041C000146420206BF5FEA412390EA010F40F415
:10042C00800070474FF0000304E000BF10F0004361
:10043C0048BF40425FEA000C08BF704743F0964348
:10044C0001464FF000001CE050EA010208BF704763
:10045C004FF000030AE000BF50EA010208BF7047EA
:10046C0011F0004302D5404261EB41015FEA010CFF
:10047C0002BF84460146002043F0B64308BFA3F1F7
:10048C008053A3F50003BCFA8CF2083AA3EBC253D9
:10049C0010DB01FA02FC634400FA02FCC2F12002F8
:1004AC00BCF1004F20FA02F243EB020008BF20F02F
:1004BC000100704702F1200201FA02FCC2F1200295
:1004CC0050EA4C0021FA02F243EB020008BF20EA8A
:1004DC00DC7070474FF0FF3C06E000BF4FF0010CA2
:1004EC0002E000BF4FF0010C4DF804CD4FEA400282
:1004FC004FEA41037FEA226C18BF7FEA236C11D0CC
:10050C0001B052EA530C18BF90EA010F58BFB2EB7E
:10051C00030088BFC81738BF6FEAE17018BF40F0FE
:10052C00010070477FEA226C02D15FEA402C05D1B2
:10053C007FEA236CE4D15FEA412CE1D05DF8040B37
:10054C00704700BF844608466146FFE70FB5FFF7CA
:10055C00C9FF002848BF10F1000F0FBD4DF808ED82
:10056C00FFF7F4FF0CBF012000205DF808FB00BF73
:10057C004DF808EDFFF7EAFF34BF012000205DF8CD
:10058C0008FB00BF4DF808EDFFF7E0FF94BF01201A
:10059C0000205DF808FB00BF4DF808EDFFF7D2FF17
:1005AC0094BF012000205DF808FB00BF4DF808ED5A
:1005BC00FFF7C8FF34BF012000205DF808FB00BF27
:1005CC004FEA4002B2F1FE4F0FD34FF09E03B3EB54
:1005DC0012620DD94FEA002343F0004310F0004F94
:1005EC0023FA02F018BF404270474FF000007047EA
:1005FC0012F1610F01D1420205D110F0004008BF89
:10060C006FF0004070474FF00000704780B584B029
:10061C0000AF786039604FF000017868FFF7A8FFF1
:10062C000346002B09D03B682D221A703B6801331E
:10063C003B607B6883F000437B6047497868FFF739
:10064C0087FD03461846FFF7BBFF0346FB60FA68BD
:10065C00424B83FB02139910D317C91A0B469B000C
:10066C000B445B00D11ACAB23B6805333032D2B2AC
:10067C001A70FB68394A82FB03129210DB17D31AEB
:10068C00FB60FA68354B83FB02139910D317C91A18
:10069C000B469B000B445B00D11ACAB23B68043377
:1006AC003032D2B21A703B6803332E221A70FB68B8
:1006BC002A4A82FB03129210DB17D31AFB60FA68EA
:1006CC00264B83FB02139910D317C91A0B469B00B8
:1006DC000B445B00D11ACAB23B6802333032D2B23F
:1006EC001A70FB681D4A82FB03129210DB17D31A97
:1006FC00FB60FA68194B83FB02139910D317C91AC4
:10070C000B469B000B445B00D11ACAB23B68013309
:10071C003032D2B21A70FB68104A82FB031292106C
:10072C00DB17D31AFB60FA680C4B83FB021399108E
:10073C00D317C91A0B469B000B445B00D11ACBB2E2
:10074C003033DAB23B681A703B68063300221A70F9
:10075C0000BF1037BD4680BD0000C84267666666A4
:10076C0090B59FB002AF844B07F120040FCB07C4A8
:10077C00238002341B0C237007F12F0300221A6014
:10078C001A7100F061FB00F007F900F0A1F900F01C
:10079C003FF900F073F9802387F85430812387F8F0
:1007AC00553001221021754800F034FE07F1540138
:1007BC0064230422724801F0D9FA002210216F48F8
:1007CC0000F028FE032000F0BBF9034687F86B30DD
:1007DC0097F86B203B466B49184602F031F83B46C4
:1007EC001846FFF7ADFC03469AB2394664236648B7
:1007FC0001F0A6FE012387F854304FF00003FB668E
:10080C00012210215D4800F005FE07F1480207F1B6
:10081C005401642300930423594801F0EAFB00229D
:10082C001021564800F0F6FD97F849301A463B4621
:10083C005649184602F004F83B461846FFF780FC70
:10084C0003469AB2394664234F4801F079FE97F873
:10085C00493003F04003002B07D04FF07C51F86E69
:10086C00FFF730FD0346FB660BE097F849305BB2AF
:10087C00002B06DA4FF07A51F86EFFF723FD034692
:10088C00FB66022387F85430012210213B4800F00C
:10089C00C1FD07F1480207F15401642300930323BF
:1008AC00374801F0A6FB00221021344800F0B2FDBD
:1008BC0097F849301A463B463549184601F0C0FFB7
:1008CC003B461846FFF73CFC03469AB23946642374
:1008DC002D4801F035FE97F8493087F8613097F8CC
:1008EC004A3087F8603097F861301B021AB297F8DB
:1008FC0060301BB21343A7F86830B7F96830DB11CE
:10090C00A7F86830B7F868305BB27B66786EFFF793
:10091C008DFD03461946F86EFFF7D4FC0346FB66C3
:10092C0007F134031946F86EFFF770FE07F1200348
:10093C001846FFF705FC03469AB207F12001642321
:10094C00114801F0FDFD07F134031846FFF7F8FBE1
:10095C0003469AB207F1340164230B4801F0F0FD11
:10096C00642302220B49084801F0EAFD4FF47A7027
:10097C0000F0CCFA0FE700BF143200080008014069
:10098C0078000020C4310008D0000020E0310008BD
:10099C00F83100081032000880B590B000AF07F1B4
:1009AC00180328220021184601F06AFF3B1D002283
:1009BC001A605A609A60DA601A610223BB610123E3
:1009CC00BB621023FB6200237B6307F118031846FC
:1009DC0000F038FD0346002B01D000F0ABF80F23DC
:1009EC007B600023BB600023FB604FF480633B61A2
:1009FC0000237B613B1D0021184600F0A5FF034638
:100A0C00002B01D000F096F800BF4037BD4680BDEA
:100A1C0080B500AF174B184A1A60164B4FF4827210
:100A2C005A60144B00229A60124B0022DA60114B70
:100A3C0000221A610F4B00225A610E4B4FF40072C8
:100A4C009A610C4B0022DA610A4B00221A62094BA4
:100A5C0000225A62074B00229A62064B0A22DA6283
:100A6C00044801F0FFF80346002B01D000F062F8B7
:100A7C0000BF80BD780000200030014080B500AF81
:100A8C00114B124A1A60104B4FF416525A600E4B0F
:100A9C0000229A600C4B0022DA600B4B00221A6188
:100AAC00094B0C225A61084B00229A61064B00221A
:100ABC00DA61054801F0F4FC0346002B01D000F08C
:100ACC0039F800BF80BD00BFD000002000380140C5
:100ADC0080B586B000AF07F1080300221A605A6097
:100AEC009A60DA60114B9B69104A43F004039361DE
:100AFC000E4B9B6903F004037B607B680022102182
:100B0C000B4800F087FC1023BB600123FB60002323
:100B1C003B6103237B6107F108031946044800F08D
:100B2C00FDFA00BF1837BD4680BD00BF0010024063
:100B3C000008014080B400AF72B600BF00BFFDE7F3
:100B4C0080B586B002AF0346FB71FB793B73012283
:100B5C001021104800F05EFC07F1080207F10C01AF
:100B6C006423009301230C4801F043FA0346002B45
:100B7C0006D000221021074800F04CFCFF2305E0B2
:100B8C0000221021034800F045FC3B7A1846103730
:100B9C00BD4680BD000801407800002080B485B0BF
:100BAC0000AF154B9B69144A43F001039361124B40
:100BBC009B6903F00103BB60BB680F4BDB690E4AFA
:100BCC0043F08053D3610C4BDB6903F080537B60A3
:100BDC007B680A4B5B68FB60FB6823F0E063FB609F
:100BEC00FB6843F08063FB60044AFB68536000BF02
:100BFC001437BD4680BC7047001002400000014015
:100C0C0080B588B000AF786007F1100300221A603D
:100C1C005A609A60DA607B681B681B4A93422FD13A
:100C2C001A4B9B69194A43F480539361174B9B6988
:100C3C0003F48053FB60FB68144B9B69134A43F02D
:100C4C0004039361114B9B6903F00403BB60BB6805
:100C5C00A0233B6102237B610323FB6107F110039B
:100C6C0019460B4800F05AFA40233B6100237B6184
:100C7C000023BB6107F110031946054800F04EFA3A
:100C8C0000BF2037BD4680BD00300140001002403F
:100C9C000008014080B588B000AF786007F1100300
:100CAC0000221A605A609A60DA607B681B681C4AE2
:100CBC00934231D11B4B9B691A4A43F48043936195
:100CCC00184B9B6903F48043FB60FB68154B9B69D5
:100CDC00144A43F004039361124B9B6903F0040321
:100CEC00BB60BB684FF400733B6102237B61032341
:100CFC00FB6107F1100319460B4800F00FFA4FF493
:100D0C0080633B6100237B610023BB6107F110030F
:100D1C001946054800F002FA00BF2037BD4680BDD9
:100D2C0000380140001002400008014080B400AFC0
:100D3C0000BFFDE780B400AF00BFFDE780B400AF9B
:100D4C0000BFFDE780B400AF00BFFDE780B400AF8B
:100D5C0000BFFDE780B400AF00BFBD4680BC70474C
:100D6C0080B400AF00BFBD4680BC704780B400AFFC
:100D7C0000BFBD4680BC704780B500AF00F0AAF83C
:100D8C0000BF80BD80B586B000AF7860144A154BAB
:100D9C00D31A7B617B693B61134B1B68002B02D11F
:100DAC00114B124A1A60104B1A687B6813443A694B
:100DBC009A4207D201F06CFD03460C221A604FF0E8
:100DCC00FF3309E0084B1B68FB60074B1A687B6814
:100DDC001344054A1360FB6818461837BD4680BD9E
:100DEC0000280020000400001801002068020020E8
:100DFC0080B400AF00BFBD4680BC7047FFF7F8FF62
:100E0C000B480C490C4A002302E0D458C45004335C
:100E1C00C4188C42F9D3094A094C002301E0136031
:100E2C000432A242FBD301F039FDFFF799FC704765
:100E3C00000000205C000020983200085C000020BC
:100E4C0068020020FEE7000080B500AF084B1B686D
:100E5C00074A43F010031360032000F02BF90F2016
:100E6C0000F008F8FFF79AFE0023184680BD00BF7B
:100E7C000020024080B582B000AF7860124B1A6837
:100E8C00124B1B7819464FF47A73B3FBF1F3B2FB98
:100E9C00F3F3184600F035F90346002B01D001237B
:100EAC000EE07B680F2B0AD8002279684FF0FF30D8
:100EBC0000F00BF9064A7B681360002300E0012365
:100ECC0018460837BD4680BD0000002008000020F1
:100EDC000400002080B400AF054B1B781A46054B6C
:100EEC001B681344034A136000BFBD4680BC7047A7
:100EFC00080000201C01002080B400AF024B1B68CE
:100F0C001846BD4680BC70471C01002080B584B0DB
:100F1C0000AF7860FFF7F0FFB8607B68FB60FB68A0
:100F2C00B3F1FF3F05D00A4B1B781A46FB681344FC
:100F3C00FB6000BFFFF7E0FF0246BB68D31AFA68FC
:100F4C009A42F7D800BF00BF1037BD4680BD00BF26
:100F5C000800002080B485B000AF78607B6803F097
:100F6C000703FB600C4BDB68BB60BA684FF6FF03F2
:100F7C001340BB60FB681A02BB68134343F0BF63AA
:100F8C0043F40033BB60044ABB68D36000BF143722
:100F9C00BD4680BC704700BF00ED00E080B400AFE0
:100FAC00044BDB681B0A03F007031846BD4680BCE4
:100FBC00704700BF00ED00E080B483B000AF034683
:100FCC003960FB7197F90730002B0ADB3B68DAB20A
:100FDC000C4997F907301201D2B20B4483F8002365
:100FEC000AE03B68DAB20849FB7903F00F03043BD3
:100FFC001201D2B20B441A7600BF0C37BD4680BC2E
:10100C00704700BF00E100E000ED00E080B489B063
:10101C0000AFF860B9607A60FB6803F00703FB610E
:10102C00FB69C3F10703042B28BF0423BB61FB69D5
:10103C000433062B02D9FB69033B00E000237B61E0
:10104C004FF0FF32BB6902FA03F3DA43BB681A4074
:10105C007B699A404FF0FF317B6901FA03F3D94366
:10106C007B680B40134318462437BD4680BC704741
:10107C0080B582B000AF78607B68013BB3F1807FB4
:10108C0001D301230FE00A4A7B68013B53600F2117
:10109C004FF0FF30FFF790FF054B00229A60044B96
:1010AC0007221A60002318460837BD4680BD00BFD2
:1010BC0010E000E080B582B000AF78607868FFF790
:1010CC0049FF00BF0837BD4680BD80B586B000AF74
:1010DC000346B9607A60FB7300237B61FFF75EFF08
:1010EC0078617A68B9687869FFF790FF024697F9DA
:1010FC000F3011461846FFF75FFF00BF1837BD468B
:10110C0080BD80B582B000AF78607868FFF7B0FF23
:10111C00034618460837BD4680BD000080B48BB02E
:10112C0000AF7860396000237B6200233B6261E191
:10113C0001227B6A02FA03F3FB613B681B68FA69C4
:10114C001340BB61BA69FB699A4240F050813B681D
:10115C005B68974A93425ED0954A934275D8954AFC
:10116C00934258D0934A93426FD8934A934252D0A9
:10117C00914A934269D8914A93424CD08F4A9342F8
:10118C0063D88F4A934246D08D4A93425DD8122B36
:10119C002AD8122B59D801A252F823F02312000896
:1011AC00FD1100080F120008511200085712000818
:1011BC00571200085712000857120008571200085F
:1011CC00571200085712000857120008571200084F
:1011DC00571200085712000857120008571200083F
:1011EC000512000819120008764A934213D02CE01D
:1011FC003B68DB683B6229E03B68DB6804333B629D
:10120C0024E03B68DB6808333B621FE03B68DB682B
:10121C000C333B621AE03B689B68002B02D1042321
:10122C003B6213E03B689B68012B05D108233B62B2
:10123C007B68FA691A6109E008233B627B68FA69EA
:10124C005A6103E000233B6200E000BFBB69FF2B47
:10125C0001D87B6801E07B6804337B61BB69FF2BA1
:10126C0002D87B6A9B0002E07B6A083B9B003B61D7
:10127C007B691A680F213B6901FA03F3DB431A40BF
:10128C00396A3B6901FA03F31A437B691A603B68BC
:10129C005B6803F08053002B00F0A9804A4B9B69DC
:1012AC00494A43F001039361474B9B6903F00103E7
:1012BC00BB60BB68454A7B6A9B08023352F82330FB
:1012CC00FB607B6A03F003039B000F2202FA03F31B
:1012DC00DB43FA681340FB607B683D4A93420DD0B8
:1012EC007B683C4A934207D07B683B4A934201D1CE
:1012FC00022304E0032302E0012300E000237A6AC6
:10130C0002F0030292009340FA681343FB602F49EA
:10131C007B6A9B080233FA6841F823203B685B68C0
:10132C0003F48013002B06D02C4B9A682B49BB6915
:10133C0013438B6006E0294B9A68BB69DB43274952
:10134C0013408B603B685B6803F40013002B06D0E2
:10135C00224BDA682149BB691343CB6006E01F4B73
:10136C00DA68BB69DB431D491340CB603B685B68A3
:10137C0003F40033002B06D0184B5A681749BB698D
:10138C0013434B6006E0154B5A68BB69DB431349AA
:10139C0013404B603B685B6803F48033002B1FD019
:1013AC000E4B1A680D49BB6913430B601FE000BF5D
:1013BC00000032100000311000002210000021103B
:1013CC00000012100000111000100240000001403B
:1013DC0000080140000C01400010014000040140D5
:1013EC000B4B1A68BB69DB43094913400B607B6AE2
:1013FC0001337B623B681A687B6A22FA03F3002B89
:10140C007FF496AE00BF00BF2C37BD4680BC704742
:10141C000004014080B483B000AF78600B467B8041
:10142C0013467B707B78002B03D07A887B681A611B
:10143C0003E07B881A047B681A6100BF0C37BD4639
:10144C0080BC704780B586B000AF78607B68002B9D
:10145C0001D1012372E27B681B6803F00103002BAE
:10146C0000F08780924B5B6803F00C03042B0CD0CC
:10147C008F4B5B6803F00C03082B12D18C4B5B6811
:10148C0003F48033B3F5803F0BD1894B1B6803F415
:10149C000033002B6CD07B685B68002B68D1012378
:1014AC004CE27B685B68B3F5803F06D1804B1B68D0
:1014BC007F4A43F4803313602EE07B685B68002B1B
:1014CC000CD17B4B1B687A4A23F480331360784B26
:1014DC001B68774A23F4802313601DE07B685B68EC
:1014EC00B3F5A02F0CD1724B1B68714A43F48023C7
:1014FC0013606F4B1B686E4A43F4803313600BE030
:10150C006B4B1B686A4A23F480331360684B1B686F
:10151C00674A23F4802313607B685B68002B13D02D
:10152C00FFF7EAFC386108E0FFF7E6FC02463B698E
:10153C00D31A642B01D9032300E25D4B1B6803F41F
:10154C000033002BF0D014E0FFF7D6FC386108E034
:10155C00FFF7D2FC02463B69D31A642B01D9032353
:10156C00ECE1534B1B6803F40033002BF0D100E08B
:10157C0000BF7B681B6803F00203002B63D04C4B4D
:10158C005B6803F00C03002B0BD0494B5B6803F03A
:10159C000C03082B1CD1464B5B6803F48033002BE7
:1015AC0016D1434B1B6803F00203002B05D07B685C
:1015BC001B69012B01D00123C0E13D4B1B6823F0BB
:1015CC00F8027B685B69DB00394913430B603AE036
:1015DC007B681B69002B20D0364B01221A60FFF769
:1015EC008BFC386108E0FFF787FC02463B69D31A95
:1015FC00022B01D90323A1E12D4B1B6803F002033D
:10160C00002BF0D02A4B1B6823F0F8027B685B6937
:10161C00DB00274913430B6015E0264B00221A60B0
:10162C00FFF76AFC386108E0FFF766FC02463B698D
:10163C00D31A022B01D9032380E11D4B1B6803F045
:10164C000203002BF0D17B681B6803F00803002B0E
:10165C003AD07B689B69002B19D0174B01221A607A
:10166C00FFF74AFC386108E0FFF746FC02463B698D
:10167C00D31A022B01D9032360E10D4B5B6A03F0F3
:10168C000203002BF0D0012000F0CEFA1CE00A4B34
:10169C0000221A60FFF730FC38610FE0FFF72CFCDA
:1016AC0002463B69D31A022B08D9032346E100BF3B
:1016BC00001002400000424280044242924B5B6A9E
:1016CC0003F00203002BE9D17B681B6803F00403D1
:1016DC00002B00F0A6800023FB758B4BDB6903F01D
:1016EC008053002B0DD1884BDB69874A43F0805324
:1016FC00D361854BDB6903F08053BB60BB6801236E
:10170C00FB75824B1B6803F48073002B18D17F4B45
:10171C001B687E4A43F480731360FFF7EDFB38615E
:10172C0008E0FFF7E9FB02463B69D31A642B01D9A9
:10173C00032303E1754B1B6803F48073002BF0D07B
:10174C007B68DB68012B06D16F4B1B6A6E4A43F03A
:10175C00010313622DE07B68DB68002B0CD16A4B14
:10176C001B6A694A23F001031362674B1B6A664AC2
:10177C0023F0040313621CE07B68DB68052B0CD19F
:10178C00614B1B6A604A43F0040313625E4B1B6A95
:10179C005D4A43F0010313620BE05B4B1B6A5A4A30
:1017AC0023F001031362584B1B6A574A23F00403BE
:1017BC0013627B68DB68002B15D0FFF79DFB38614B
:1017CC000AE0FFF799FB02463B69D31A41F28832D3
:1017DC00934201D90323B1E04B4B1B6A03F0020384
:1017EC00002BEED014E0FFF787FB38610AE0FFF71F
:1017FC0083FB02463B69D31A41F28832934201D9EA
:10180C0003239BE0404B1B6A03F00203002BEED139
:10181C00FB7D012B05D13C4BDB693B4A23F080530C
:10182C00D3617B68DB69002B00F08780364B5B68EB
:10183C0003F00C03082B61D07B68DB69022B46D1CB
:10184C00334B00221A60FFF757FB386108E0FFF7B3
:10185C0053FB02463B69D31A022B01D903236DE0DB
:10186C00294B1B6803F00073002BF0D17B681B6ABB
:10187C00B3F5803F08D1244B5B6823F400327B68BE
:10188C009B68214913434B601F4B5B6823F4741214
:10189C007B68196A7B685B6A0B431B4913434B607B
:1018AC001B4B01221A60FFF727FB386108E0FFF79A
:1018BC0023FB02463B69D31A022B01D903233DE0DB
:1018CC00114B1B6803F00073002BF0D035E0104B6C
:1018DC0000221A60FFF710FB386108E0FFF70CFBE1
:1018EC0002463B69D31A022B01D9032326E0064B8F
:1018FC001B6803F00073002BF0D11EE07B68DB69E2
:10190C00012B07D1012319E00010024000700040A8
:10191C00600042420B4B5B68FB60FB6803F4803257
:10192C007B681B6A9A4206D1FB6803F470127B68D1
:10193C005B6A9A4201D0012300E000231846183755
:10194C00BD4680BD0010024080B584B000AF786009
:10195C0039607B68002B01D10123D0E06A4B1B68F6
:10196C0003F007033A689A4210D9674B1B6823F0BF
:10197C00070265493B6813430B60634B1B6803F01C
:10198C0007033A689A4201D00123B8E07B681B68D0
:10199C0003F00203002B20D07B681B6803F00403C8
:1019AC00002B05D0594B5B68584A43F4E0635360F5
:1019BC007B681B6803F00803002B05D0534B5B6856
:1019CC00524A43F460535360504B5B6823F0F0026F
:1019DC007B689B684D4913434B607B681B6803F025
:1019EC000103002B40D07B685B68012B07D1474B70
:1019FC001B6803F40033002B15D101237FE07B68B7
:101A0C005B68022B07D1414B1B6803F00073002B62
:101A1C0009D1012373E03D4B1B6803F00203002B3B
:101A2C0001D101236BE0394B5B6823F003027B6827
:101A3C005B68364913434B60FFF75EFAF8600AE0C7
:101A4C00FFF75AFA0246FB68D31A41F288329342E6
:101A5C0001D9032353E02D4B5B6803F00C027B6828
:101A6C005B689B009A42EBD1274B1B6803F0070382
:101A7C003A689A4210D2244B1B6823F00702224981
:101A8C003B6813430B60204B1B6803F007033A6859
:101A9C009A4201D0012332E07B681B6803F00403F7
:101AAC00002B08D0194B5B6823F4E0627B68DB6881
:101ABC00164913434B607B681B6803F00803002B2B
:101ACC0009D0124B5B6823F460527B681B69DB0006
:101ADC000E4913434B6000F021F802460B4B5B6838
:101AEC001B0903F00F030A49CB5C22FA03F3094AE2
:101AFC001360094B1B681846FFF7BCF90023184606
:101B0C001037BD4680BD00BF0020024000100240CF
:101B1C0028320008000000200400002080B487B0A8
:101B2C0000AF0023FB600023BB6000237B6100231C
:101B3C007B6000233B611E4B5B68FB60FB6803F022
:101B4C000C03042B02D0082B03D027E0194B3B616C
:101B5C0027E0FB689B0C03F00F03174AD35C7B60F8
:101B6C00FB6803F48033002B10D0114B5B685B0CCB
:101B7C0003F00103114AD35CBB607B680D4A03FB85
:101B8C0002F2BB68B2FBF3F37B6104E07B680C4AA6
:101B9C0002FB03F37B617B693B6102E0054B3B611C
:101BAC0000BF3B6918461C37BD4680BC704700BF60
:101BBC000010024000127A00403200085032000837
:101BCC0000093D0080B400AF024B1B681846BD46AF
:101BDC0080BC70470000002080B500AFFFF7F2FF1B
:101BEC000246054B5B681B0A03F007030349CB5CF9
:101BFC0022FA03F3184680BD001002403832000868
:101C0C0080B500AFFFF7DEFF0246054B5B68DB0AD1
:101C1C0003F007030349CB5C22FA03F3184680BD9B
:101C2C00001002403832000880B485B000AF7860F4
:101C3C000A4B1B680A4AA2FB03235B0A7A6802FB65
:101C4C0003F3FB6000BFFB685A1EFA60002BF9D14E
:101C5C0000BF00BF1437BD4680BC70470000002099
:101C6C00D34D621080B582B000AF78607B68002BDA
:101C7C0001D1012376E07B685B6A002B08D17B687D
:101C8C005B68B3F5827F09D07B680022DA6105E0DE
:101C9C007B6800221A617B6800225A617B680022F3
:101CAC009A627B6893F85130DBB2002B06D17B68CB
:101CBC00002283F850207868FEF7A2FF7B6802228E
:101CCC0083F851207B681B681A687B681B6822F0BC
:101CDC0040021A607B685B6803F482727B689B68C5
:101CEC0003F404431A437B68DB6803F400631A4370
:101CFC007B681B6903F002031A437B685B6903F082
:101D0C0001031A437B689B6903F400731A437B68D5
:101D1C00DB6903F038031A437B681B6A03F080030A
:101D2C0042EA03017B689B6A03F400527B681B68E0
:101D3C000A431A607B689B691A0C7B681B6802F06B
:101D4C0004025A607B681B68DA697B681B6822F4A2
:101D5C000062DA617B6800225A657B68012283F895
:101D6C005120002318460837BD4680BD80B588B089
:101D7C0000AFF860B9603B601346FB800023FB7733
:101D8C00FB6893F85030012B01D102232DE1FB6845
:101D9C00012283F85020FFF7AFF8B861FB88FB8273
:101DAC00FB6893F85130DBB2012B02D00223FB7796
:101DBC0016E1BB68002B02D0FB88002B02D101235B
:101DCC00FB770DE1FB68032283F85120FB680022AE
:101DDC005A65FB68BA681A63FB68FA889A86FB68CE
:101DEC00FA88DA86FB6800229A63FB6800229A87DD
:101DFC00FB680022DA87FB6800225A64FB68002229
:101E0C001A64FB689B68B3F5004F0FD1FB681B6825
:101E1C001A68FB681B6822F040021A60FB681B689A
:101E2C001A68FB681B6842F480421A60FB681B68E6
:101E3C001B6803F04003402B07D0FB681B681A6833
:101E4C00FB681B6842F040021A60FB68DB68B3F564
:101E5C00006F4FD1FB685B68002B02D0FB8A012B13
:101E6C0042D1FB681B6B1A88FB681B68DA60FB6845
:101E7C001B6B9A1CFB681A63FB68DB8E9BB2013BE5
:101E8C009AB2FB68DA862FE0FB681B689B6803F04C
:101E9C000203022B12D1FB681B6B1A88FB681B68B0
:101EAC00DA60FB681B6B9A1CFB681A63FB68DB8EA1
:101EBC009BB2013B9AB2FB68DA8615E0FFF71CF87F
:101ECC000246BB69D31A3A689A4203D83B68B3F10D
:101EDC00FF3F02D13B68002B06D10323FB77FB6845
:101EEC00012283F851207BE0FB68DB8E9BB2002B38
:101EFC00CAD150E0FB685B68002B02D0FB8A012B37
:101F0C0044D1FB681A6BFB681B680C3312781A708F
:101F1C00FB681B6B5A1CFB681A63FB68DB8E9BB25D
:101F2C00013B9AB2FB68DA8630E0FB681B689B6861
:101F3C0003F00203022B13D1FB681A6BFB681B68BE
:101F4C000C3312781A70FB681B6B5A1CFB681A63F3
:101F5C00FB68DB8E9BB2013B9AB2FB68DA8615E01C
:101F6C00FEF7CAFF0246BB69D31A3A689A4203D8F5
:101F7C003B68B3F1FF3F02D13B68002B06D1032332
:101F8C00FB77FB68012283F8512029E0FB68DB8E8C
:101F9C009BB2002BC9D1BA693968F86800F062FAB3
:101FAC000346002B02D0FB6820225A65FB689B6815
:101FBC00002B0AD100233B61FB681B68DB683B618B
:101FCC00FB681B689B683B613B69FB685B6D002B86
:101FDC0002D00123FB7703E0FB68012283F8512038
:101FEC00FB68002283F85020FB7F18462037BD4643
:101FFC0080BD80B58CB000AFF860B9607A607B8032
:10200C000123FB62002387F82B30FB6893F85030D8
:10201C00012B01D1022398E1FB68012283F85020A7
:10202C00FEF76AFF7862FB6893F8513087F823302B
:10203C00FB685B68FB617B887B8397F82330012B03
:10204C000FD0FB69B3F5827F07D1FB689B68002B2F
:10205C0003D197F82330042B03D0022387F82B30BD
:10206C006DE1BB68002B05D07B68002B02D07B8810
:10207C00002B03D1012387F82B3060E1FB6893F828
:10208C005130DBB2042B03D0FB68052283F85120BE
:10209C00FB6800225A65FB687A689A63FB687A8849
:1020AC00DA87FB687A889A87FB68BA681A63FB68D8
:1020BC007A88DA86FB687A889A86FB6800221A642A
:1020CC00FB6800225A64FB681B681B6803F0400322
:1020DC00402B07D0FB681B681A68FB681B6842F032
:1020EC0040021A60FB68DB68B3F5006F7CD1FB68BB
:1020FC005B68002B02D07B8B012B6AD1FB681B6BBE
:10210C001A88FB681B68DA60FB681B6B9A1CFB68FF
:10211C001A63FB68DB8E9BB2013B9AB2FB68DA86D2
:10212C0057E0FB681B689B6803F00203022B1BD172
:10213C00FB68DB8E9BB2002B16D0FB6A012B13D1F4
:10214C00FB681B6B1A88FB681B68DA60FB681B6BEF
:10215C009A1CFB681A63FB68DB8E9BB2013B9AB23C
:10216C00FB68DA860023FB62FB681B689B6803F044
:10217C000103012B19D1FB68DB8F9BB2002B14D010
:10218C00FB681B68DA68FB689B6B92B21A80FB6871
:10219C009B6B9A1CFB689A63FB68DB8F9BB2013BC1
:1021AC009AB2FB68DA870123FB62FEF7A5FE0246B2
:1021BC007B6AD31ABA6B9A420BD8BB6BB3F1FF3F55
:1021CC0007D0032387F82B30FB68012283F85120BA
:1021DC00B5E0FB68DB8E9BB2002BA2D1FB68DB8FDA
:1021EC009BB2002B9DD180E0FB685B68002B02D07A
:1021FC007B8B012B6FD1FB681A6BFB681B680C3354
:10220C0012781A70FB681B6B5A1CFB681A63FB680C
:10221C00DB8E9BB2013B9AB2FB68DA865BE0FB6813
:10222C001B689B6803F00203022B1CD1FB68DB8E3E
:10223C009BB2002B17D0FB6A012B14D1FB681A6BD5
:10224C00FB681B680C3312781A70FB681B6B5A1CEA
:10225C00FB681A63FB68DB8E9BB2013B9AB2FB688E
:10226C00DA860023FB62FB681B689B6803F00103A2
:10227C00012B19D1FB68DB8F9BB2002B14D0FB68B0
:10228C001B68DA68FB689B6BD2B21A70FB689B6B9D
:10229C005A1CFB689A63FB68DB8F9BB2013B9AB2BA
:1022AC00FB68DA870123FB62FEF726FE02467B6A97
:1022BC00D31ABA6B9A4203D8BB6BB3F1FF3F02D16E
:1022CC00BB6B002B07D1032387F82B30FB68012253
:1022DC0083F8512033E0FB68DB8E9BB2002B9ED140
:1022EC00FB68DB8F9BB2002B99D17A6AB96BF868CB
:1022FC0000F0B8F80346002B06D0012387F82B30EA
:10230C00FB6820225A651AE0FB689B68002B0AD1F7
:10231C0000237B61FB681B68DB687B61FB681B68C7
:10232C009B687B617B69FB685B6D002B03D0012391
:10233C0087F82B3003E0FB68012283F85120FB68FF
:10234C00002283F8502097F82B3018463037BD46C2
:10235C0080BD000080B588B000AFF860B9603B600C
:10236C001346FB71FEF7C8FD0246BB6A9B1A3A681E
:10237C001344FB61FEF7C0FDB861394B1B685B0170
:10238C001B0DFA6902FB03F37B6154E03B68B3F16C
:10239C00FF3F50D0FEF7B0FD0246BB69D31AFA6975
:1023AC009A4202D9FB69002B3DD1FB681B685A6825
:1023BC00FB681B6822F0E0025A60FB685B68B3F5AF
:1023CC00827F11D1FB689B68B3F5004F04D0FB688A
:1023DC009B68B3F5806F07D1FB681B681A68FB68B4
:1023EC001B6822F040021A60FB689B6AB3F5005F21
:1023FC000FD1FB681B681A68FB681B6822F400523B
:10240C001A60FB681B681A68FB681B6842F4005270
:10241C001A60FB68012283F85120FB68002283F8C4
:10242C005020032317E07B69002B01D10023FB61B3
:10243C007B69013B7B61FB681B689A68BB68134036
:10244C00BA689A420CBF01230023DBB21A46FB790F
:10245C009A429BD1002318462037BD4680BD00BF51
:10246C000000002080B586B002AFF860B9607A60D9
:10247C007B680093BB6800228021F868FFF76AFF35
:10248C000346002B07D0FB685B6D43F02002FB6812
:10249C005A65032300E0002318461037BD4680BD63
:1024AC0080B582B000AF78607B68002B01D101232E
:1024BC0042E07B6893F84130DBB2002B06D17B689D
:1024CC00002283F840207868FEF7E4FB7B68242226
:1024DC0083F841207B681B68DA687B681B6822F4F0
:1024EC000052DA60786800F01DF97B681B681A6985
:1024FC007B681B6822F490421A617B681B685A69DE
:10250C007B681B6822F02A025A617B681B68DA68B8
:10251C007B681B6842F40052DA607B6800225A64C4
:10252C007B68202283F841207B68202283F842209C
:10253C007B6800225A63002318460837BD4680BDCD
:10254C0080B58AB002AFF860B9603B601346FB807F
:10255C0000237B61FB6893F84130DBB2202B6DD1FB
:10256C00BB68002B02D0FB88002B01D1012366E055
:10257C00FB6800225A64FB68212283F84120FEF795
:10258C00BBFC7861FB68FA889A84FB68FA88DA8469
:10259C00FB689B68B3F5805F08D1FB681B69002B57
:1025AC0004D10023FB61BB68BB6103E0BB68FB612A
:1025BC000023BB612AE03B6800937B6900228021E9
:1025CC00F86800F040F80346002B01D0032336E0F6
:1025DC00FB69002B0BD1BB691B881A46FB681B6877
:1025EC00C2F308025A60BB690233BB6107E0FB69A6
:1025FC001A78FB681B685A60FB690133FB61FB6846
:10260C00DB8C9BB2013B9AB2FB68DA84FB68DB8CF7
:10261C009BB2002BCFD13B6800937B6900224021F9
:10262C00F86800F010F80346002B01D0032306E0F5
:10263C00FB68202283F84120002300E00223184687
:10264C002037BD4680BD80B590B000AFF860B96052
:10265C003B601346FB7150E0BB6CB3F1FF3F4CD0B9
:10266C00BB6C002B07D0FEF747FC02463B68D31A25
:10267C00BA6C9A4241D2FB681B680C33BB62BB6AD2
:10268C0053E8003F7B627B6A23F4D073FB63FB68E7
:10269C001B680C33FA6B7A633B63396B7A6B41E8DA
:1026AC000023FB62FB6A002BE5D1FB681B6814332B
:1026BC007B617B6953E8003F3B613B6923F001037D
:1026CC00BB63FB681B681433BA6B3A62FB61F96934
:1026DC003A6A41E80023BB61BB69002BE5D1FB687A
:1026EC00202283F84120FB68202283F84220FB68DB
:1026FC00002283F8402003230FE0FB681B681A6854
:10270C00BB681340BA689A420CBF01230023DBB2AA
:10271C001A46FB799A429FD0002318464037BD4693
:10272C0080BD000080B584B000AF78607B681B680A
:10273C001B6923F440517B68DA687B681B680A4389
:10274C001A617B689A687B681B691A437B685B69B2
:10275C001343BB607B681B68DB6823F4B05323F026
:10276C000C037A681268B9680B43D3607B681B68EA
:10277C005B6923F440717B689A697B681B680A4328
:10278C005A617B681B682C4A934203D1FFF738FAD5
:10279C00F86002E0FFF720FAF860FA6813469B0035
:1027AC0013449A001A447B685B689B00B2FBF3F3FA
:1027BC00224AA2FB03235B091901FA6813469B000A
:1027CC0013449A001A447B685B689B00B2FBF3F2DB
:1027DC001A4BA3FB02035B09642000FB03F3D31A1F
:1027EC001B013233154AA2FB03235B0903F0F003F0
:1027FC001944FA6813469B0013449A001A447B68E8
:10280C005B689B00B2FBF3F20C4BA3FB02035B096E
:10281C00642000FB03F3D31A1B013233074AA2FBDB
:10282C0003235B0903F00F027B681B680A449A6060
:10283C0000BF1037BD4680BD003801401F85EB51ED
:10284C000EB46FF0004100B59CB01DAB0290069029
:10285C00079104910848094953F8042B0591006825
:10286C0002A9019300F092F90022029B1A701CB08D
:10287C005DF804EB03B070470C0000200802FFFF6A
:10288C0003460244934200D1704703F8011BF9E759
:10289C00014B1868704700BF0C00002070B5002673
:1028AC000C4D0D4C641BA410A64209D100F078FC11
:1028BC0000260A4D0A4C641BA410A64205D170BD1B
:1028CC0055F8043B98470136EEE755F8043B98471A
:1028DC000136F2E79032000890320008903200087E
:1028EC00943200087047704738B50546002940D02F
:1028FC0051F8043C0C1F002BB8BFE41800F0DEF8B4
:10290C001C4A136833B9636014602846BDE838402C
:10291C0000F0DAB8A34208D9206821188B4201BF15
:10292C0019685B6809182160EDE71A465B680BB102
:10293C00A342FAD911685018A0420BD12068014467
:10294C00501883421160E0D118685B68084410602D
:10295C005360DAE702D90C232B60D6E720682118E4
:10296C008B4201BF19685B68091821606360546071
:10297C00CBE738BD6402002070B50F4E0C463168B1
:10298C00054611B900F0AAFB30602146284600F03C
:10299C00A5FB431C03D14FF0FF34204670BDC41C73
:1029AC0024F00304A042F8D0211A284600F096FB2C
:1029BC000130F2D1EFE700BF600200202DE9F843AF
:1029CC00CD1C25F0030508350C2D38BF0C25002D2A
:1029DC00064601DBA94204D90C2333600020BDE874
:1029EC00F883DFF8D48000F069F8D8F800301C4682
:1029FC0044BB29463046FFF7BFFF431C044658D161
:102A0C00D8F800402746002F43D1002C4BD0236828
:102A1C003946304604EB030900F060FB814542D196
:102A2C00216830466D1A2946FFF7A6FF01303AD0CF
:102A3C0023682B442360D8F800305A6862BBC8F86E
:102A4C0000700FE02268521B20D40B2A17D9611991
:102A5C00A342256018BF5960636808BFC8F800100E
:102A6C0062514B60304600F02FF804F10B00231D2F
:102A7C0020F00700C21A1CBF1B1AA350AFE76268F4
:102A8C00A3420CBFC8F800205A60EBE723466468E9
:102A9C00AEE73C467F68B6E71A465B68A342FBD1BB
:102AAC0000235360DEE70C233046336000F00CF853
:102ABC0094E70560D6E700BF640200200148FFF7E9
:102ACC0011BF00BF5C0200200148FFF70CBF00BF24
:102ADC005C0200202DE9F0471F468E688246BE42FC
:102AEC000C4690460B682DD8B1F90C2012F4906F5F
:102AFC0026D06569096905EB4505A3EB010905EBD2
:102B0C00D5757B1C4B446D109D4238BF1D4653053B
:102B1C0027D52946FFF752FF064660B34A4621697E
:102B2C0000F0FAFAA38923F4906343F08003A381A5
:102B3C0026614E4426603E466561A5EB0905A560FD
:102B4C00BE4200D93E4632464146206800F0ACFAFF
:102B5C000020A3689B1BA360236833442360BDE85B
:102B6C00F0872A4600F0E6FA06460028E0D15046E7
:102B7C002169FFF7B9FE0C23CAF80030A3894FF086
:102B8C00FF3043F04003A381E9E700002DE9F04F4B
:102B9C0098468B8907461B060D4614469DB010D5EA
:102BAC000B6973B94021FFF709FF2860286130B920
:102BBC000C233B604FF0FF301DB0BDE8F08F40237D
:102BCC006B610023099320238DF8293030234FF0BB
:102BDC000109CDF80C80DFF898818DF82A30234656
:102BEC009A4613F8012B0AB1252AF9D1BAEB040B3A
:102BFC000BD05B46224629463846FFF76BFF013067
:102C0C0000F0A780099A5A4409929AF80030002BD8
:102C1C0000F09F8000234FF0FF32CDE905230AF12D
:102C2C00010A049307938DF853301A9354460522E6
:102C3C0014F8011B4E4800F061FA049AD8B9D0067A
:102C4C0044BF20238DF85330110744BF2B238DF83C
:102C5C0053309AF800302A2B15D0544600204FF0F0
:102C6C000A0C079A214611F8013B303B092B4BD932
:102C7C00B0B1079214E0A0EB080309FA03F3134375
:102C8C00A2460493D2E7039B191D1B680391002BEA
:102C9C00BBBF5B4242F0020207930793B8BF04929A
:102CAC0023782E2B0AD163782A2B32D1039B023442
:102CBC001A1D1B68039243EAE3730593DFF8B4A073
:102CCC0003225046217800F019FA38B14022049BB7
:102CDC00A0EB0A00824013430134049314F8011B47
:102CEC00062225488DF8281000F008FA002836D066
:102CFC00224B1BBB039B073323F0070308330393BF
:102D0C00099B334409936AE70C4601200CFB023201
:102D1C00A8E700234FF00A0C19460134059320460E
:102D2C0010F8012B303A092A03D9002BC6D0059193
:102D3C00C4E7044601230CFB0121F0E703AB00932D
:102D4C002A4638460E4B04A9AFF30080421C0646B7
:102D5C00D6D1AB895B063FF52DAF09982CE703ABB9
:102D6C0000932A463846064B04A900F07DF8EDE79F
:102D7C0052320008583200085C3200080000000093
:102D8C00E12A00082DE9F047164698468A680B6937
:102D9C0007469342B8BF1346336091F843200C4664
:102DAC00DDF820900AB1013333602368990642BFE5
:102DBC00336802333360256815F0060506D104F13B
:102DCC00190AE36832689B1AAB422BDC94F8433047
:102DDC002268003B18BF0123920630D44146384686
:102DEC0004F14302C847013023D02368226903F061
:102DFC000603042B14BF002533684FF0000608BFF0
:102E0C00E56804F11A0408BFED1A54F8123C08BF27
:102E1C0025EAE5759342C4BF9B1AED18B5421AD149
:102E2C00002008E00123524641463846C84701308D
:102E3C0003D14FF0FF30BDE8F0870135C1E73020FA
:102E4C00E11881F843005A1C94F8451022440233CF
:102E5C0082F84310C2E70123224641463846C84750
:102E6C000130E6D00136D9E72DE9FF470F7E9146B8
:102E7C00782F80460C469A460C9E01F1430207D8E7
:102E8C00622F0AD8002F00F0D380582F00F0BA80A0
:102E9C0004F1420684F842703AE0A7F16303152B63
:102EAC00F6D801A151F823F00D2F0008212F0008AE
:102EBC009D2E00089D2E00089D2E00089D2E0008BA
:102ECC00212F00089D2E00089D2E00089D2E000825
:102EDC009D2E0008233000084B2F0008DD2F000822
:102EEC009D2E00089D2E0008453000089D2E0008E0
:102EFC004B2F00089D2E00089D2E0008E52F000882
:102F0C0033681A1D1B68326004F1420684F84230A3
:102F1C0001239EE033682068191D3160060601D537
:102F2C001D6803E04506FBD5B3F90050002D03DA0C
:102F3C002D236D4284F843300A23594811E021684F
:102F4C003368080653F8045B02D4490648BFADB297
:102F5C006F2F336014BF0A2308235148002184F8D3
:102F6C0043106668002EA8BF2168A660A4BF21F09C
:102F7C00040121600DB9002E4BD01646B5FBF3F1C0
:102F8C0003FB1157C75D06F8017D2F46BB420D466A
:102F9C00F4D9082B0BD12368DF0708D523696168A6
:102FAC009942DEBF302306F8013C06F1FF36921B36
:102FBC0022614B4621464046CDF800A003AAFFF7FC
:102FCC00E1FE01304AD14FF0FF3004B0BDE8F0878C
:102FDC00236843F0200323607827324884F8457037
:102FEC00236831681F0651F8045B02D45F0648BFA2
:102FFC00ADB23160D90744BF43F0200323601DB14B
:10300C001023ABE72648E9E7236823F0200323606D
:10301C00F6E71646BDE733682568181D6169306010
:10302C002E061B6801D5196002E06806FBD51980D5
:10303C00002316462361BCE7336800211A1D326059
:10304C001E686268304600F059F808B1801B606059
:10305C0063682361002384F84330AAE7324649466B
:10306C0040462369D0470130ADD023689B0713D469
:10307C00E068039B9842B8BF1846A6E70123324686
:10308C0049464046D04701309DD00135E36803994D
:10309C005B1AAB42F2DCEBE7002504F11906F5E70D
:1030AC006332000874320008884210B501EB020448
:1030BC0002D98442234607D8431EA14208D011F8F6
:1030CC00012B03F8012FF8E7014602448A4200D194
:1030DC0010BD13F8014D02F8014DF7E738B5002388
:1030EC00054D044608462B60FDF74CFE431C02D1EF
:1030FC002B6803B1236038BD58020020034610B57D
:10310C00C9B202449342184601D1002003E004786E
:10311C0001338C42F6D110BD0A44914200F1FF33C9
:10312C0000D1704710B511F8014B914203F8014FD3
:10313C00F9D110BD2DE9F041804615460C4621B958
:10314C001146BDE8F041FFF739BC2AB9FFF7CCFBBB
:10315C0000242046BDE8F08100F01AF885420646AE
:10316C0002D8B5EB500FF4D829464046FFF726FCA1
:10317C0007460028ECD0B5422A46214628BF3246E5
:10318C00FFF7CAFF21464046FFF7AEFB3C46E0E79F
:10319C0051F8043C181F002BBCBF0B58C0187047CB
:1031AC00F8B500BFF8BC08BC9E467047F8B500BF28
:0831BC00F8BC08BC9E467047F8
:1031C400436F6E74726F6C205265676973746572B5
:1031D4003A203078253032580A0D00004C534220F2
:1031E40052656769737465723A20307825303258B5
:1031F4000A0D00004D53422052656769737465726D
:103204003A203078253032580A0D00000A0D0000AB
:1032140074656D7065726174757265203D2000007F
:103224000000000000000000000000000102030490
:103234000607080900000000010203040203040554
:10324400060708090A0B0C0D0E0F10100102232D9E
:10325400302B2000686C4C0065666745464700309B
:1032640031323334353637383941424344454600E8
:1032740030313233343536373839616263646566E8
:043284000000000046
:08328800C4CEFF7F010000002D
:043290003101000800
:043294000D01000820
:103298000024F400100000000100000010000020CD
:1032A800000000002001002088010020F00100201B
:1032B8000000000000000000000000000000000006
:1032C80000000000000000000000000000000000F6
:1032D80000000000000000000000000000000000E6
:0C32E800000000000000000000000000DA
:0400000508000E09D8
:00000001FF
