:020000040800F2
:1000000000280020D9070008090700081107000888
:100010001907000821070008290700080000000050
:100020000000000000000000000000003107000890
:100030003D070008000000004907000855070008B8
:1000400021080008210800082108000821080008EC
:1000500021080008210800082108000821080008DC
:1000600021080008210800082108000821080008CC
:1000700021080008210800082108000821080008BC
:1000800021080008210800082108000821080008AC
:10009000210800082108000821080008210800089C
:1000A000210800082108000821080008210800088C
:1000B00021080008210800080000000021080008AD
:1000C00021080008000000000000000021080008CE
:1000D00000000000210800082108000800000000BE
:1000E000210800082108000821080008000000007D
:1000F0000000000000000000000000000000000000
:0C01000000000000000000005FF808F1A3
:10010C0010B5054C237833B9044B13B10448AFF345
:10011C0000800123237010BD5C0000200000000053
:10012C00DC33000808B5034B1BB103490348AFF39C
:10013C00008008BD0000000060000020DC330008D7
:10014C00034613F8012B002AFBD1181A013870470B
:10015C0080B582B000AF00F05FFB00F01DF800F03E
:10016C00CBF900F055F800F081F800F0F1F8786068
:10017C0000F058F938603968786800F0A1F84FF44D
:10018C007A7000F0ABFB2021024800F043FE00BF68
:10019C00EBE700BF0008014080B590B000AF07F15D
:1001AC00180328220021184602F082FC3B1D002275
:1001BC001A605A609A60DA601A610223BB610123EB
:1001CC00BB621023FB6200237B6307F11803184604
:1001DC0001F06EFE0346002B01D000F0CBF90F238B
:1001EC007B600023BB600023FB6000233B6100238A
:1001FC007B613B1D0021184602F0DCF80346002B06
:10020C0001D000F0B7F900BF4037BD4680BD0000FB
:10021C0080B500AF124B134A1A60114B124A5A6048
:10022C000F4B00229A600E4B0022DA600C4B4FF4FD
:10023C0080421A610A4B00225A61094B00229A61D2
:10024C00074B0022DA61064B00221A62044800F0C8
:10025C00FBFD0346002B01D000F08CF900BF80BDE4
:10026C007800002000540040A086010080B500AF4B
:10027C00114B124A1A60104B4FF4E1325A600E4B7C
:10028C0000229A600C4B0022DA600B4B00221A61A0
:10029C00094B0C225A61084B00229A61064B002232
:1002AC00DA61054802F014FA0346002B01D000F085
:1002BC0061F900BF80BD00BFCC00002000380140B8
:1002CC00B0B584B002AF786039607B681C4A82FBA1
:1002DC0003125211DB17D51A7B68194A82FB0312E1
:1002EC005111DA17891A642201FB02F2991A3B6840
:1002FC00134A82FB03025211DB17D01A3A68104BD7
:10030C0083FB02435C11D317E31A642404FB03F34D
:10031C00D31A019300900B462A460A490A4802F068
:10032C00A7FB0948FFF70CFF03469AB20A230649BC
:10033C00064802F01DFA00BF0837BD46B0BD00BF2D
:10034C001F85EB51F433000814010020CC00002071
:10035C0080B586B002AFE3233B713A1D0A230093AC
:10036C0001237E212A4800F0B3FE0346FB73FB7B7E
:10037C00002B10D02749284802F07AFB2648FFF7BB
:10038C00DFFE03469AB20A232349244802F0F0F90F
:10039C004FF0FF3338E0322000F0A0FA3A460A233F
:1003AC00009302237E211A4800F090FF0346FB7352
:1003BC00FB7B002B10D01A49174802F059FB16484A
:1003CC00FFF7BEFE03469AB20A231349134802F004
:1003DC00CFF94FF0FF3317E03B781B021AB27B7852
:1003EC001BB213431BB2BB81BB8944F2A44202FB78
:1003FC0003F3002B02DA03F57F43FF331B14A3F541
:10040C0092530D3BBB60BB6818461037BD4680BD90
:10041C00780000202034000814010020CC000020BB
:10042C003834000880B586B002AFE5233B713A1D25
:10043C000A23009301237E212A4800F049FE03463B
:10044C00FB73FB7B002B10D02749284802F010FBD4
:10045C002648FFF775FE03469AB20A23234924481F
:10046C0002F086F94FF0FF3337E0322000F036FA15
:10047C003A460A23009302237E211A4800F026FFF5
:10048C000346FB73FB7B002B10D01A49174802F074
:10049C00EFFA1648FFF754FE03469AB20A231349A3
:1004AC00134802F065F94FF0FF3316E03B781B025E
:1004BC001AB27B781BB213431BB2BB81BB8943F2CC
:1004CC00D40202FB03F3002B02DA03F57F43FF3364
:1004DC001B14A3F51673BB60BB6818461037BD46DA
:1004EC0080BD00BF780000205034000814010020AB
:1004FC00CC0000206834000880B586B000AF07F14E
:10050C00080300221A605A609A60DA60174B9B69E4
:10051C00164A43F004039361144B9B6903F00403E4
:10052C007B607B68114B9B69104A43F00803936115
:10053C000E4B9B6903F008033B603B6800222021B3
:10054C000B4800F04FFC2023BB600123FB60002311
:10055C003B6102237B6107F108031946044800F054
:10056C00C5FA00BF1837BD4680BD00BF0010024061
:10057C000008014080B400AF72B600BF00BFFDE7B9
:10058C0080B485B000AF154B9B69144A43F001034E
:10059C009361124B9B6903F00103BB60BB680F4B6B
:1005AC00DB690E4A43F08053D3610C4BDB6903F0DB
:1005BC0080537B607B680A4B5B68FB60FB6823F0B5
:1005CC00E063FB60FB6843F08063FB60044AFB68FC
:1005DC00536000BF1437BD4680BC7047001002400A
:1005EC000000014080B588B000AF786007F11003BF
:1005FC0000221A605A609A60DA607B681B68164A9F
:10060C00934225D1154B9B69144A43F0080393611F
:10061C00124B9B6903F00803FB60FB68C0233B6132
:10062C0012237B610023BB610323FB6107F11003E1
:10063C0019460B4800F05AFA084BDB69074A43F499
:10064C000013D361054BDB6903F40013BB60BB687B
:10065C0000BF2037BD4680BD005400400010024052
:10066C00000C014080B588B000AF786007F1100332
:10067C0000221A605A609A60DA607B681B681C4A18
:10068C00934231D11B4B9B691A4A43F480439361CB
:10069C00184B9B6903F48043FB60FB68154B9B690B
:1006AC00144A43F004039361124B9B6903F0040357
:1006BC00BB60BB684FF400733B6102237B61032377
:1006CC00FB6107F1100319460B4800F00FFA4FF4C9
:1006DC0080633B6100237B610023BB6107F1100346
:1006EC001946054800F002FA00BF2037BD4680BD10
:1006FC0000380140001002400008014080B400AFF7
:10070C0000BFFDE780B400AF00BFFDE780B400AFD1
:10071C0000BFFDE780B400AF00BFFDE780B400AFC1
:10072C0000BFFDE780B400AF00BFBD4680BC704782
:10073C0080B400AF00BFBD4680BC704780B400AF32
:10074C0000BFBD4680BC704780B500AF00F0AAF872
:10075C0000BF80BD80B586B000AF7860144A154BE1
:10076C00D31A7B617B693B61134B1B68002B02D155
:10077C00114B124A1A60104B1A687B6813443A6981
:10078C009A4207D202F09CF903460C221A604FF0F1
:10079C00FF3309E0084B1B68FB60074B1A687B684A
:1007AC001344054A1360FB6818461837BD4680BDD4
:1007BC0000280020000400004801002098020020BE
:1007CC0080B400AF00BFBD4680BC7047FFF7F8FF98
:1007DC000B480C490C4A002302E0D458C450043393
:1007EC00C4188C42F9D3094A094C002301E0136068
:1007FC000432A242FBD302F069F9FFF7A9FC70475F
:10080C00000000205C000020EC3400085C0000209C
:10081C0098020020FEE7000080B500AF084B1B6873
:10082C00074A43F010031360032000F02BF90F204C
:10083C0000F008F8FFF7A4FE0023184680BD00BFA7
:10084C000020024080B582B000AF7860124B1A686D
:10085C00124B1B7819464FF47A73B3FBF1F3B2FBCE
:10086C00F3F3184600F035F90346002B01D00123B1
:10087C000EE07B680F2B0AD8002279684FF0FF300E
:10088C0000F00BF9064A7B681360002300E001239B
:10089C0018460837BD4680BD000000200800002027
:1008AC000400002080B400AF054B1B781A46054BA2
:1008BC001B681344034A136000BFBD4680BC7047DD
:1008CC00080000204C01002080B400AF024B1B68D4
:1008DC001846BD4680BC70474C01002080B584B0E2
:1008EC0000AF7860FFF7F0FFB8607B68FB60FB68D7
:1008FC00B3F1FF3F05D00A4B1B781A46FB68134433
:10090C00FB6000BFFFF7E0FF0246BB68D31AFA6832
:10091C009A42F7D800BF00BF1037BD4680BD00BF5C
:10092C000800002080B485B000AF78607B6803F0CD
:10093C000703FB600C4BDB68BB60BA684FF6FF0328
:10094C001340BB60FB681A02BB68134343F0BF63E0
:10095C0043F40033BB60044ABB68D36000BF143758
:10096C00BD4680BC704700BF00ED00E080B400AF16
:10097C00044BDB681B0A03F007031846BD4680BC1A
:10098C00704700BF00ED00E080B483B000AF0346B9
:10099C003960FB7197F90730002B0ADB3B68DAB240
:1009AC000C4997F907301201D2B20B4483F800239B
:1009BC000AE03B68DAB20849FB7903F00F03043B09
:1009CC001201D2B20B441A7600BF0C37BD4680BC64
:1009DC00704700BF00E100E000ED00E080B489B09A
:1009EC0000AFF860B9607A60FB6803F00703FB6145
:1009FC00FB69C3F10703042B28BF0423BB61FB690C
:100A0C000433062B02D9FB69033B00E000237B6116
:100A1C004FF0FF32BB6902FA03F3DA43BB681A40AA
:100A2C007B699A404FF0FF317B6901FA03F3D9439C
:100A3C007B680B40134318462437BD4680BC704777
:100A4C0080B582B000AF78607B68013BB3F1807FEA
:100A5C0001D301230FE00A4A7B68013B53600F214D
:100A6C004FF0FF30FFF790FF054B00229A60044BCC
:100A7C0007221A60002318460837BD4680BD00BF08
:100A8C0010E000E080B582B000AF78607868FFF7C6
:100A9C0049FF00BF0837BD4680BD80B586B000AFAA
:100AAC000346B9607A60FB7300237B61FFF75EFF3E
:100ABC0078617A68B9687869FFF790FF024697F910
:100ACC000F3011461846FFF75FFF00BF1837BD46C1
:100ADC0080BD80B582B000AF78607868FFF7B0FF5A
:100AEC00034618460837BD4680BD000080B48BB065
:100AFC0000AF7860396000237B6200233B6261E1C8
:100B0C0001227B6A02FA03F3FB613B681B68FA69FA
:100B1C001340BB61BA69FB699A4240F050813B6853
:100B2C005B68974A93425ED0954A934275D8954A32
:100B3C00934258D0934A93426FD8934A934252D0DF
:100B4C00914A934269D8914A93424CD08F4A93422E
:100B5C0063D88F4A934246D08D4A93425DD8122B6C
:100B6C002AD8122B59D801A252F823F0F30B000803
:100B7C00CD0B0008DF0B0008210C0008270C000827
:100B8C00270C0008270C0008270C0008270C00086D
:100B9C00270C0008270C0008270C0008270C00085D
:100BAC00270C0008270C0008270C0008270C00084D
:100BBC00D50B0008E90B0008764A934213D02CE0C1
:100BCC003B68DB683B6229E03B68DB6804333B62D3
:100BDC0024E03B68DB6808333B621FE03B68DB6862
:100BEC000C333B621AE03B689B68002B02D1042358
:100BFC003B6213E03B689B68012B05D108233B62E9
:100C0C007B68FA691A6109E008233B627B68FA6920
:100C1C005A6103E000233B6200E000BFBB69FF2B7D
:100C2C0001D87B6801E07B6804337B61BB69FF2BD7
:100C3C0002D87B6A9B0002E07B6A083B9B003B610D
:100C4C007B691A680F213B6901FA03F3DB431A40F5
:100C5C00396A3B6901FA03F31A437B691A603B68F2
:100C6C005B6803F08053002B00F0A9804A4B9B6912
:100C7C00494A43F001039361474B9B6903F001031D
:100C8C00BB60BB68454A7B6A9B08023352F8233031
:100C9C00FB607B6A03F003039B000F2202FA03F351
:100CAC00DB43FA681340FB607B683D4A93420DD0EE
:100CBC007B683C4A934207D07B683B4A934201D104
:100CCC00022304E0032302E0012300E000237A6AFC
:100CDC0002F0030292009340FA681343FB602F4921
:100CEC007B6A9B080233FA6841F823203B685B68F7
:100CFC0003F48013002B06D02C4B9A682B49BB694C
:100D0C0013438B6006E0294B9A68BB69DB43274988
:100D1C0013408B603B685B6803F40013002B06D018
:100D2C00224BDA682149BB691343CB6006E01F4BA9
:100D3C00DA68BB69DB431D491340CB603B685B68D9
:100D4C0003F40033002B06D0184B5A681749BB69C3
:100D5C0013434B6006E0154B5A68BB69DB431349E0
:100D6C0013404B603B685B6803F48033002B1FD04F
:100D7C000E4B1A680D49BB6913430B601FE000BF93
:100D8C000000321000003110000022100000211071
:100D9C000000121000001110001002400000014071
:100DAC0000080140000C014000100140000401400B
:100DBC000B4B1A68BB69DB43094913400B607B6A18
:100DCC0001337B623B681A687B6A22FA03F3002BBF
:100DDC007FF496AE00BF00BF2C37BD4680BC704779
:100DEC000004014080B483B000AF78600B467B8078
:100DFC0013467B707B78002B03D07A887B681A6152
:100E0C0003E07B881A047B681A6100BF0C37BD466F
:100E1C0080BC704780B485B000AF78600B467B8097
:100E2C007B68DB68FB607A88FB6813401A04FB68FC
:100E3C00D9437B880B401A437B681A6100BF143777
:100E4C00BD4680BC7047000080B584B000AF7860B0
:100E5C007B68002B01D101232BE17B6893F83D309B
:100E6C00DBB2002B06D17B68002283F83C2078682B
:100E7C00FFF7B8FB7B68242283F83D207B681B6856
:100E8C001A687B681B6822F001021A607B681B6879
:100E9C001A687B681B6842F400421A607B681B6806
:100EAC001A687B681B6822F400421A6001F0CAFBC6
:100EBC00F8607B685B68814A934207D8FB68804A7C
:100ECC00934294BF01230023DBB206E0FB687D4A0A
:100EDC00934294BF01230023DBB2002B01D00123EA
:100EEC00E7E0FB68784AA2FB03239B0CBB607B68A2
:100EFC001B685B6823F03F017B681B68BA680A4378
:100F0C005A607B681B681B6A23F03F017B685B6837
:100F1C006A4A934202D8BB68013309E0BB684FF4BC
:100F2C00967202FB03F3694AA2FB03239B0901336C
:100F3C007A6812680B4313627B681B68DB6923F4C5
:100F4C004F4222F0FF027B685B685C498B4219D8E8
:100F5C00FB68591E7B685B685B00B1FBF3F3591CA3
:100F6C0040F6FC730B40002B0AD0FB68591E7B68C3
:100F7C005B685B00B1FBF3F30133C3F30B0351E08C
:100F8C0004234FE07B689B68002B11D1FB68581E33
:100F9C007B6859680B465B000B44B0FBF3F30133E1
:100FAC00C3F30B03002B0CBF01230023DBB212E0B5
:100FBC00FB68581E7B6859680B469B000B449900D4
:100FCC000B44B0FBF3F30133C3F30B03002B0CBF47
:100FDC0001230023DBB2002B01D0012322E07B682C
:100FEC009B68002B0ED1FB68581E7B6859680B461A
:100FFC005B000B44B0FBF3F30133C3F30B0343F47B
:10100C0000430FE0FB68581E7B6859680B469B0039
:10101C000B4499000B44B0FBF3F30133C3F30B0304
:10102C0043F44043796809681343CB617B681B68C0
:10103C001B6823F0C0017B68DA697B681B6A1A4362
:10104C007B681B680A431A607B681B689B6823F4E7
:10105C00034323F0FF037A6811697A68D26811435D
:10106C007A6812680B4393607B681B68DB6823F01B
:10107C00FF017B685A697B689B691A437B681B6814
:10108C000A43DA607B681B681A687B681B6842F04D
:10109C0001021A607B6800221A647B68202283F8A4
:1010AC003D207B6800221A637B68002283F83E2077
:1010BC00002318461037BD4680BD00BFA086010036
:1010CC007F841E00FF083D0083DE1B43D34D62105E
:1010DC0080B588B002AFF8607A601A460B467B8107
:1010EC0013463B81FFF7F0FB7861FB6893F83D30CA
:1010FC00DBB2202B40F0E0807B69009319230122A6
:10110C007049F86800F09EFC0346002B01D00223C6
:10111C00D3E0FB6893F83C30012B01D10223CCE0E7
:10112C00FB68012283F83C20FB681B681B6803F0FA
:10113C000103012B07D0FB681B681A68FB681B684E
:10114C0042F001021A60FB681B681A68FB681B6896
:10115C0022F400621A60FB68212283F83D20FB68B0
:10116C00102283F83E20FB6800221A64FB687A6820
:10117C005A62FB683A895A85FB685B8D9AB2FB68A8
:10118C001A85FB68504ADA6279897B693A6AF86891
:10119C0000F008FB0346002B01D001238DE0002357
:1011AC003B61FB681B685B693B61FB681B689B6967
:1011BC003B613B6966E07A69396AF86800F05CFD6E
:1011CC000346002B0DD0FB681B6C042B07D1FB686E
:1011DC001B681A68FB681B6842F400721A600123D2
:1011EC006BE0FB685B6A1A78FB681B681A61FB682A
:1011FC005B6A5A1CFB685A62FB685B8D9BB2013BB5
:10120C009AB2FB685A85FB681B8D013B9AB2FB684E
:10121C001A85FB681B685B6903F00403042B1BD164
:10122C00FB681B8D002B17D0FB685B6A1A78FB6878
:10123C001B681A61FB685B6A5A1CFB685A62FB6884
:10124C005B8D9BB2013B9AB2FB685A85FB681B8D88
:10125C00013B9AB2FB681A857A69396AF86800F022
:10126C0053FD0346002B0DD0FB681B6C042B07D1E0
:10127C00FB681B681A68FB681B6842F400721A60F2
:10128C0001231AE0FB681B8D002B94D1FB681B68B3
:10129C001A68FB681B6842F400721A60FB68202213
:1012AC0083F83D20FB68002283F83E20FB68002277
:1012BC0083F83C20002300E0022318461837BD4673
:1012CC0080BD00BF020010000000FFFF80B58CB095
:1012DC0002AFF8607A601A460B467B8113463B815D
:1012EC0000233B62FFF7F0FA7862FB6893F83D301D
:1012FC00DBB2202B40F04B827B6A00931923012236
:10130C007F49F86800F09EFB0346002B01D00223B6
:10131C003EE2FB6893F83C30012B01D1022337E20B
:10132C00FB68012283F83C20FB681B681B6803F0F8
:10133C000103012B07D0FB681B681A68FB681B684C
:10134C0042F001021A60FB681B681A68FB681B6894
:10135C0022F400621A60FB68222283F83D20FB68AD
:10136C00102283F83E20FB6800221A64FB687A681E
:10137C005A62FB683A895A85FB685B8D9AB2FB68A6
:10138C001A85FB685F4ADA6279897B6A3A6BF8687E
:10139C0000F08AFA0346002B01D00123F8E1FB6828
:1013AC001B8D002B13D10023FB61FB681B685B6951
:1013BC00FB61FB681B689B69FB61FB69FB681B6835
:1013CC001A68FB681B6842F400721A60CCE1FB6877
:1013DC001B8D012B1ED1FB681B681A68FB681B68F0
:1013EC0022F480621A6072B600BF0023BB61FB68F6
:1013FC001B685B69BB61FB681B689B69BB61BB6954
:10140C00FB681B681A68FB681B6842F400721A6060
:10141C0062B635E0FB681B8D022B1ED1FB681B6886
:10142C001A68FB681B6842F400621A6072B600BF4F
:10143C0000237B61FB681B685B697B61FB681B6835
:10144C009B697B617B69FB681B681A68FB681B687E
:10145C0022F480621A6062B612E0FB681B681A689C
:10146C00FB681B6842F480621A6000233B61FB68D6
:10147C001B685B693B61FB681B689B693B613B6953
:10148C0072E1FB681B8D032B00F21F81FB681B8D27
:10149C00012B23D17A6A396BF86800F07DFC034686
:1014AC00002B01D0012373E1FB681B681A69FB68F0
:1014BC005B6AD2B21A70FB685B6A5A1CFB685A6290
:1014CC00FB681B8D013B9AB2FB681A85FB685B8D30
:1014DC009BB2013B9AB2FB685A8545E1FB681B8DB8
:1014EC00022B52D17B6A00933B6B00220649F868B1
:1014FC0000F0A8FA0346002B08D0012348E100BFF6
:10150C00020010000000FFFF0400010072B600BFD3
:10151C00FB681B681A68FB681B6842F400721A604F
:10152C00FB681B681A69FB685B6AD2B21A70FB68AD
:10153C005B6A5A1CFB685A62FB681B8D013B9AB2B2
:10154C00FB681A85FB685B8D9BB2013B9AB2FB680A
:10155C005A8562B600BFFB681B681A69FB685B6A38
:10156C00D2B21A70FB685B6A5A1CFB685A62FB6841
:10157C001B8D013B9AB2FB681A85FB685B8D9BB295
:10158C00013B9AB2FB685A85EEE07B6A00933B6B99
:10159C0000228149F86800F055FA0346002B01D06F
:1015AC000123F5E0FB681B681A68FB681B6822F4D2
:1015BC0080621A6072B600BFFB681B681A69FB6810
:1015CC005B6AD2B21A70FB685B6A5A1CFB685A627F
:1015DC00FB681B8D013B9AB2FB681A85FB685B8D1F
:1015EC009BB2013B9AB2FB685A856C4B1B68DB08BB
:1015FC006B4AA2FB03231A0A13469B001344DA001E
:10160C00D31A3B623B6A013B3B623B6A002B18D10D
:10161C00FB6800221A63FB68202283F83D20FB68DC
:10162C00002283F83E20FB681B6C43F02002FB6811
:10163C001A6462B600BFFB68002283F83C200123C9
:10164C00A6E0FB681B685B6903F00403042BD9D18B
:10165C00FB681B681A68FB681B6842F400721A600E
:10166C00FB681B681A69FB685B6AD2B21A70FB686C
:10167C005B6A5A1CFB685A62FB681B8D013B9AB271
:10168C00FB681A85FB685B8D9BB2013B9AB2FB68C9
:10169C005A8562B600BFFB681B681A69FB685B6AF7
:1016AC00D2B21A70FB685B6A5A1CFB685A62FB6800
:1016BC001B8D013B9AB2FB681A85FB685B8D9BB254
:1016CC00013B9AB2FB685A854EE07A6A396BF8682E
:1016DC0000F062FB0346002B01D0012358E0FB68AD
:1016EC001B681A69FB685B6AD2B21A70FB685B6A8A
:1016FC005A1CFB685A62FB681B8D013B9AB2FB6853
:10170C001A85FB685B8D9BB2013B9AB2FB685A85CC
:10171C00FB681B685B6903F00403042B24D1FB6892
:10172C001B8D032B07D1FB681B681A68FB681B68B1
:10173C0022F480621A60FB681B681A69FB685B6A9A
:10174C00D2B21A70FB685B6A5A1CFB685A62FB685F
:10175C001B8D013B9AB2FB681A85FB685B8D9BB2B3
:10176C00013B9AB2FB685A85FB681B8D002B7FF4FA
:10177C0088AEFB68202283F83D20FB68002283F8AA
:10178C003E20FB68002283F83C20002300E002236B
:10179C0018462837BD4680BD04000100000000201B
:1017AC0089B5F81480B588B002AFF8607A603B60F8
:1017BC000B467B81FB68DB6A7B617B69082B06D05F
:1017CC007B69012B03D07B6913F5803F08D1FB6843
:1017DC001B681A68FB681B6842F480721A600BE085
:1017EC00FB681B6B122B07D1FB681B681A68FB6824
:1017FC001B6842F480721A603B6800937B6800227D
:10180C004FF00111F86800F01DF90346002B0DD0C4
:10181C00FB681B681B6803F48073B3F5807F03D1EE
:10182C00FB684FF400721A64032335E0FB681B69F4
:10183C00B3F5804F08D17B89DBB21A46FB681B6875
:10184C0002F0FE021A611BE07B89DB11DBB203F0B4
:10185C000603DBB263F00F03DAB2FB681B681A6194
:10186C003B687A680E49F86800F066F90346002B6D
:10187C0001D0012310E07B89DAB2FB681B681A6186
:10188C003B687A680749F86800F056F90346002B64
:10189C0001D0012300E0002318461837BD4680BD57
:1018AC00080001000200010080B588B002AFF860AA
:1018BC007A603B600B467B81FB68DB6A7B61FB6873
:1018CC001B681A68FB681B6842F480621A607B69AB
:1018DC00082B06D07B69012B03D07B6913F5803F65
:1018EC0008D1FB681B681A68FB681B6842F480729D
:1018FC001A600BE0FB681B6B112B07D1FB681B6894
:10190C001A68FB681B6842F480721A603B6800938B
:10191C007B6800224FF00111F86800F093F8034641
:10192C00002B0DD0FB681B681B6803F48073B3F5A8
:10193C00807F03D1FB684FF400721A64032379E0B3
:10194C00FB681B69B3F5804F08D17B89DBB243F090
:10195C000103DAB2FB681B681A615FE07B89DB115B
:10196C00DBB203F00603DBB263F00F03DAB2FB6801
:10197C001B681A613B687A683049F86800F0DCF83B
:10198C000346002B01D0012354E07B89DAB2FB68BB
:10199C001B681A613B687A682949F86800F0CCF832
:1019AC000346002B01D0012344E000233B61FB687C
:1019BC001B685B693B61FB681B689B693B613B690E
:1019CC00FB681B681A68FB681B6842F480721A601B
:1019DC003B6800937B6800224FF00111F86800F01F
:1019EC0031F80346002B0DD0FB681B681B6803F411
:1019FC008073B3F5807F03D1FB684FF400721A64D7
:101A0C00032317E07B89DB11DBB203F00603DBB2A7
:101A1C0063F00E03DAB2FB681B681A613B687A68E4
:101A2C000749F86800F088F80346002B01D0012321
:101A3C0000E0002318461837BD4680BD08000100A1
:101A4C000200010080B584B000AFF860B9603B6063
:101A5C001346FB7148E03B68B3F1FF3F44D0FEF7FF
:101A6C0033FF0246BB69D31A3A689A4202D33B68E9
:101A7C00002B39D1BB681B0CDBB2012B0DD1FB68E1
:101A8C001B685B69DA43BB6813409BB2002B0CBF2D
:101A9C0001230023DBB21A460CE0FB681B689B6930
:101AAC00DA43BB6813409BB2002B0CBF012300230D
:101ABC00DBB21A46FB799A4216D1FB6800221A63F4
:101ACC00FB68202283F83D20FB68002283F83E202F
:101ADC00FB681B6C43F02002FB681A64FB68002255
:101AEC0083F83C20012323E0BB681B0CDBB2012BE9
:101AFC000DD1FB681B685B69DA43BB6813409BB272
:101B0C00002B0CBF01230023DBB21A460CE0FB6850
:101B1C001B689B69DA43BB6813409BB2002B0CBF5C
:101B2C0001230023DBB21A46FB799A4293D000239F
:101B3C0018461037BD4680BD80B584B000AFF86044
:101B4C00B9607A603B6071E0FB681B685B6903F409
:101B5C008063B3F5806F23D1FB681B681A68FB6840
:101B6C001B6842F400721A60FB681B686FF4806299
:101B7C005A61FB6800221A63FB68202283F83D201F
:101B8C00FB68002283F83E20FB681B6C43F00402C8
:101B9C00FB681A64FB68002283F83C20012367E091
:101BAC007B68B3F1FF3F41D0FEF78EFE02463B68E7
:101BBC00D31A7A689A4202D37B68002B36D1BB6861
:101BCC001B0CDBB2012B0CD1FB681B685B69DA4385
:101BDC00BB6813409BB2002B14BF01230023DBB264
:101BEC000BE0FB681B689B69DA43BB6813409BB234
:101BFC00002B14BF01230023DBB2002B16D0FB6893
:101C0C0000221A63FB68202283F83D20FB68002227
:101C1C0083F83E20FB681B6C43F02002FB681A64BF
:101C2C00FB68002283F83C20012321E0BB681B0CDD
:101C3C00DBB2012B0CD1FB681B685B69DA43BB6818
:101C4C0013409BB2002B14BF01230023DBB20BE02B
:101C5C00FB681B689B69DA43BB6813409BB2002B83
:101C6C0014BF01230023DBB2002B7FF46DAF0023E4
:101C7C0018461037BD4680BD80B584B000AFF86003
:101C8C00B9607A6034E0F86800F0E3F80346002BA2
:101C9C0001D0012334E0BB68B3F1FF3F28D0FEF73D
:101CAC0013FE02467B68D31ABA689A4202D3BB6809
:101CBC00002B1DD1FB681B685B6903F08003802B34
:101CCC0016D0FB6800221A63FB68202283F83D20A3
:101CDC00FB68002283F83E20FB681B6C43F020025B
:101CEC00FB681A64FB68002283F83C20012307E0A0
:101CFC00FB681B685B6903F08003802BC3D1002356
:101D0C0018461037BD4680BD80B584B000AFF86072
:101D1C00B9607A6034E0F86800F09BF80346002B59
:101D2C0001D0012334E0BB68B3F1FF3F28D0FEF7AC
:101D3C00CBFD02467B68D31ABA689A4202D3BB68C1
:101D4C00002B1DD1FB681B685B6903F00403042B9B
:101D5C0016D0FB6800221A63FB68202283F83D2012
:101D6C00FB68002283F83E20FB681B6C43F02002CA
:101D7C00FB681A64FB68002283F83C20012307E00F
:101D8C00FB681B685B6903F00403042BC3D10023BD
:101D9C0018461037BD4680BD80B584B000AFF860E2
:101DAC00B9607A6049E0FB681B685B6903F010035B
:101DBC00102B19D1FB681B686FF010025A61FB687D
:101DCC0000221A63FB68202283F83D20FB68002266
:101DDC0083F83E20FB681A6CFB681A64FB680022CF
:101DEC0083F83C20012330E0FEF76EFD02467B6851
:101DFC00D31ABA689A4202D3BB68002B1DD1FB6878
:101E0C001B685B6903F04003402B16D0FB68002273
:101E1C001A63FB68202283F83D20FB68002283F8BC
:101E2C003E20FB681B6C43F02002FB681A64FB68C5
:101E3C00002283F83C20012307E0FB681B685B69E8
:101E4C0003F04003402BAED1002318461037BD469B
:101E5C0080BD80B483B000AF78607B681B685B6921
:101E6C0003F48063B3F5806F1BD17B681B686FF440
:101E7C0080625A617B6800221A637B68202283F897
:101E8C003D207B68002283F83E207B681B6C43F06E
:101E9C0004027B681A647B68002283F83C200123CF
:101EAC0000E0002318460C37BD4680BC704700008C
:101EBC0080B586B000AF78607B68002B01D1012320
:101ECC0072E27B681B6803F00103002B00F0878033
:101EDC00924B5B6803F00C03042B0CD08F4B5B68AC
:101EEC0003F00C03082B12D18C4B5B6803F480338A
:101EFC00B3F5803F0BD1894B1B6803F40033002BE7
:101F0C006CD07B685B68002B68D101234CE27B684A
:101F1C005B68B3F5803F06D1804B1B687F4A43F466
:101F2C00803313602EE07B685B68002B0CD17B4BFD
:101F3C001B687A4A23F480331360784B1B68774A0A
:101F4C0023F4802313601DE07B685B68B3F5A02F3E
:101F5C000CD1724B1B68714A43F4802313606F4B96
:101F6C001B686E4A43F4803313600BE06B4B1B68A9
:101F7C006A4A23F480331360684B1B68674A23F466
:101F8C00802313607B685B68002B13D0FEF79CFCEE
:101F9C00386108E0FEF798FC02463B69D31A642BC3
:101FAC0001D9032300E25D4B1B6803F40033002BC3
:101FBC00F0D014E0FEF788FC386108E0FEF784FCF2
:101FCC0002463B69D31A642B01D90323ECE1534B32
:101FDC001B6803F40033002BF0D100E000BF7B68DA
:101FEC001B6803F00203002B63D04C4B5B6803F0BF
:101FFC000C03002B0BD0494B5B6803F00C03082B34
:10200C001CD1464B5B6803F48033002B16D1434B39
:10201C001B6803F00203002B05D07B681B69012BA6
:10202C0001D00123C0E13D4B1B6823F0F8027B6813
:10203C005B69DB00394913430B603AE07B681B6931
:10204C00002B20D0364B01221A60FEF73DFC386184
:10205C0008E0FEF739FC02463B69D31A022B01D982
:10206C000323A1E12D4B1B6803F00203002BF0D0DE
:10207C002A4B1B6823F0F8027B685B69DB0027495D
:10208C0013430B6015E0264B00221A60FEF71CFC74
:10209C00386108E0FEF718FC02463B69D31A022BA4
:1020AC0001D9032380E11D4B1B6803F00203002BB5
:1020BC00F0D17B681B6803F00803002B3AD07B68D7
:1020CC009B69002B19D0174B01221A60FEF7FCFB01
:1020DC00386108E0FEF7F8FB02463B69D31A022B85
:1020EC0001D9032360E10D4B5B6A03F00203002B63
:1020FC00F0D0012000F0CEFA1CE00A4B00221A604E
:10210C00FEF7E2FB38610FE0FEF7DEFB02463B69AF
:10211C00D31A022B08D9032346E100BF001002405A
:10212C000000424280044242924B5B6A03F002037D
:10213C00002BE9D17B681B6803F00403002B00F033
:10214C00A6800023FB758B4BDB6903F08053002BBF
:10215C000DD1884BDB69874A43F08053D361854BA3
:10216C00DB6903F08053BB60BB680123FB75824BBA
:10217C001B6803F48073002B18D17F4B1B687E4ABD
:10218C0043F480731360FEF79FFB386108E0FEF7A1
:10219C009BFB02463B69D31A642B01D9032303E151
:1021AC00754B1B6803F48073002BF0D07B68DB68E5
:1021BC00012B06D16F4B1B6A6E4A43F0010313626D
:1021CC002DE07B68DB68002B0CD16A4B1B6A694ADB
:1021DC0023F001031362674B1B6A664A23F0040366
:1021EC0013621CE07B68DB68052B0CD1614B1B6A0E
:1021FC00604A43F0040313625E4B1B6A5D4A43F072
:10220C00010313620BE05B4B1B6A5A4A23F0010378
:10221C001362584B1B6A574A23F0040313627B6802
:10222C00DB68002B15D0FEF74FFB38610AE0FEF798
:10223C004BFB02463B69D31A41F28832934201D9D7
:10224C000323B1E04B4B1B6A03F00203002BEED0CF
:10225C0014E0FEF739FB38610AE0FEF735FB024665
:10226C003B69D31A41F28832934201D903239BE094
:10227C00404B1B6A03F00203002BEED1FB7D012BBC
:10228C0005D13C4BDB693B4A23F08053D3617B681F
:10229C00DB69002B00F08780364B5B6803F00C0386
:1022AC00082B61D07B68DB69022B46D1334B0022B3
:1022BC001A60FEF709FB386108E0FEF705FB0246E1
:1022CC003B69D31A022B01D903236DE0294B1B6800
:1022DC0003F00073002BF0D17B681B6AB3F5803FD1
:1022EC0008D1244B5B6823F400327B689B6821493E
:1022FC0013434B601F4B5B6823F474127B68196AA1
:10230C007B685B6A0B431B4913434B601B4B0122DD
:10231C001A60FEF7D9FA386108E0FEF7D5FA0246E2
:10232C003B69D31A022B01D903233DE0114B1B68E7
:10233C0003F00073002BF0D035E0104B00221A6034
:10234C00FEF7C2FA386108E0FEF7BEFA02463B69B6
:10235C00D31A022B01D9032326E0064B1B6803F08A
:10236C000073002BF0D11EE07B68DB69012B07D1D9
:10237C00012319E00010024000700040600042424E
:10238C000B4B5B68FB60FB6803F480327B681B6A59
:10239C009A4206D1FB6803F470127B685B6A9A421E
:1023AC0001D0012300E0002318461837BD4680BD3C
:1023BC000010024080B584B000AF786039607B6853
:1023CC00002B01D10123D0E06A4B1B6803F00703FB
:1023DC003A689A4210D9674B1B6823F0070265498B
:1023EC003B6813430B60634B1B6803F007033A68AD
:1023FC009A4201D00123B8E07B681B6803F002030A
:10240C00002B20D07B681B6803F00403002B05D045
:10241C00594B5B68584A43F4E06353607B681B6814
:10242C0003F00803002B05D0534B5B68524A43F46E
:10243C0060535360504B5B6823F0F0027B689B68E1
:10244C004D4913434B607B681B6803F00103002B61
:10245C0040D07B685B68012B07D1474B1B6803F4AA
:10246C000033002B15D101237FE07B685B68022BC6
:10247C0007D1414B1B6803F00073002B09D10123DA
:10248C0073E03D4B1B6803F00203002B01D10123C9
:10249C006BE0394B5B6823F003027B685B68364961
:1024AC0013434B60FEF710FAF8600AE0FEF70CFAE3
:1024BC000246FB68D31A41F28832934201D90323B6
:1024CC0053E02D4B5B6803F00C027B685B689B0050
:1024DC009A42EBD1274B1B6803F007033A689A42E8
:1024EC0010D2244B1B6823F0070222493B6813438C
:1024FC000B60204B1B6803F007033A689A4201D02B
:10250C00012332E07B681B6803F00403002B08D026
:10251C00194B5B6823F4E0627B68DB681649134354
:10252C004B607B681B6803F00803002B09D0124B2F
:10253C005B6823F460527B681B69DB000E49134314
:10254C004B6000F021F802460B4B5B681B0903F053
:10255C000F030A49CB5C22FA03F3094A1360094BB7
:10256C001B681846FEF76EF9002318461037BD4657
:10257C0080BD00BF00200240001002407C340008E7
:10258C00000000200400002080B487B000AF0023BE
:10259C00FB600023BB6000237B6100237B60002376
:1025AC003B611E4B5B68FB60FB6803F00C03042B68
:1025BC0002D0082B03D027E0194B3B6127E0FB68C6
:1025CC009B0C03F00F03174AD35C7B60FB6803F48E
:1025DC008033002B10D0114B5B685B0C03F00103B4
:1025EC00114AD35CBB607B680D4A03FB02F2BB68EB
:1025FC00B2FBF3F37B6104E07B680C4A02FB03F350
:10260C007B617B693B6102E0054B3B6100BF3B6931
:10261C0018461C37BD4680BC704700BF00100240F6
:10262C0000127A0094340008A434000800093D001C
:10263C0080B400AF024B1B681846BD4680BC704787
:10264C000000002080B500AFFFF7F2FF0246054BFB
:10265C005B681B0A03F007030349CB5C22FA03F304
:10266C00184680BD001002408C34000880B500AFC5
:10267C00FFF7DEFF0246054B5B68DB0A03F007033E
:10268C000349CB5C22FA03F3184680BD00100240CC
:10269C008C34000880B485B000AF78600A4B1B689E
:1026AC000A4AA2FB03235B0A7A6802FB03F3FB6072
:1026BC0000BFFB685A1EFA60002BF9D100BF00BFA7
:1026CC001437BD4680BC704700000020D34D62100B
:1026DC0080B582B000AF78607B68002B01D10123FC
:1026EC0042E07B6893F84130DBB2002B06D17B686B
:1026FC00002283F840207868FDF7B4FF7B68242221
:10270C0083F841207B681B68DA687B681B6822F4BD
:10271C000052DA60786800F01DF97B681B681A6952
:10272C007B681B6822F490421A617B681B685A69AB
:10273C007B681B6822F02A025A617B681B68DA6886
:10274C007B681B6842F40052DA607B6800225A6492
:10275C007B68202283F841207B68202283F842206A
:10276C007B6800225A63002318460837BD4680BD9B
:10277C0080B58AB002AFF860B9603B601346FB804D
:10278C0000237B61FB6893F84130DBB2202B6DD1C9
:10279C00BB68002B02D0FB88002B01D1012366E023
:1027AC00FB6800225A64FB68212283F84120FEF763
:1027BC008BF87861FB68FA889A84FB68FA88DA846B
:1027CC00FB689B68B3F5805F08D1FB681B69002B25
:1027DC0004D10023FB61BB68BB6103E0BB68FB61F8
:1027EC000023BB612AE03B6800937B6900228021B7
:1027FC00F86800F040F80346002B01D0032336E0C4
:10280C00FB69002B0BD1BB691B881A46FB681B6844
:10281C00C2F308025A60BB690233BB6107E0FB6973
:10282C001A78FB681B685A60FB690133FB61FB6813
:10283C00DB8C9BB2013B9AB2FB68DA84FB68DB8CC5
:10284C009BB2002BCFD13B6800937B6900224021C7
:10285C00F86800F010F80346002B01D0032306E0C3
:10286C00FB68202283F84120002300E00223184655
:10287C002037BD4680BD80B590B000AFF860B96020
:10288C003B601346FB7150E0BB6CB3F1FF3F4CD087
:10289C00BB6C002B07D0FEF717F802463B68D31A27
:1028AC00BA6C9A4241D2FB681B680C33BB62BB6AA0
:1028BC0053E8003F7B627B6A23F4D073FB63FB68B5
:1028CC001B680C33FA6B7A633B63396B7A6B41E8A8
:1028DC000023FB62FB6A002BE5D1FB681B681433F9
:1028EC007B617B6953E8003F3B613B6923F001034B
:1028FC00BB63FB681B681433BA6B3A62FB61F96902
:10290C003A6A41E80023BB61BB69002BE5D1FB6847
:10291C00202283F84120FB68202283F84220FB68A8
:10292C00002283F8402003230FE0FB681B681A6821
:10293C00BB681340BA689A420CBF01230023DBB278
:10294C001A46FB799A429FD0002318464037BD4661
:10295C0080BD000080B584B000AF78607B681B68D8
:10296C001B6923F440517B68DA687B681B680A4357
:10297C001A617B689A687B681B691A437B685B6980
:10298C001343BB607B681B68DB6823F4B05323F0F4
:10299C000C037A681268B9680B43D3607B681B68B8
:1029AC005B6923F440717B689A697B681B680A43F6
:1029BC005A617B681B682C4A934203D1FFF756FE81
:1029CC00F86002E0FFF73EFEF860FA6813469B00E1
:1029DC0013449A001A447B685B689B00B2FBF3F3C8
:1029EC00224AA2FB03235B091901FA6813469B00D8
:1029FC0013449A001A447B685B689B00B2FBF3F2A9
:102A0C001A4BA3FB02035B09642000FB03F3D31AEC
:102A1C001B013233154AA2FB03235B0903F0F003BD
:102A2C001944FA6813469B0013449A001A447B68B5
:102A3C005B689B00B2FBF3F20C4BA3FB02035B093C
:102A4C00642000FB03F3D31A1B013233074AA2FBA9
:102A5C0003235B0903F00F027B681B680A449A602E
:102A6C0000BF1037BD4680BD003801401F85EB51BB
:102A7C000EB46FF0004100B59CB01DAB02900690F7
:102A8C00079104910848094953F8042B05910068F3
:102A9C0002A9019300F092F90022029B1A701CB05B
:102AAC005DF804EB03B070470C0000200802FFFF38
:102ABC0003460244934200D1704703F8011BF9E727
:102ACC00014B1868704700BF0C00002070B5002641
:102ADC000C4D0D4C641BA410A64209D100F078FCDF
:102AEC0000260A4D0A4C641BA410A64205D170BDE9
:102AFC0055F8043B98470136EEE755F8043B9847E8
:102B0C000136F2E7E4340008E4340008E434000849
:102B1C00E83400087047704738B50546002940D0A6
:102B2C0051F8043C0C1F002BB8BFE41800F0DEF881
:102B3C001C4A136833B9636014602846BDE83840FA
:102B4C0000F0DAB8A34208D9206821188B4201BFE3
:102B5C0019685B6809182160EDE71A465B680BB1D0
:102B6C00A342FAD911685018A0420BD12068014435
:102B7C00501883421160E0D118685B6808441060FB
:102B8C005360DAE702D90C232B60D6E720682118B2
:102B9C008B4201BF19685B6809182160636054603F
:102BAC00CBE738BD9402002070B50F4E0C4631684F
:102BBC00054611B900F0AAFB30602146284600F00A
:102BCC00A5FB431C03D14FF0FF34204670BDC41C41
:102BDC0024F00304A042F8D0211A284600F096FBFA
:102BEC000130F2D1EFE700BF900200202DE9F8434D
:102BFC00CD1C25F0030508350C2D38BF0C25002DF8
:102C0C00064601DBA94204D90C2333600020BDE841
:102C1C00F883DFF8D48000F069F8D8F800301C464F
:102C2C0044BB29463046FFF7BFFF431C044658D12E
:102C3C00D8F800402746002F43D1002C4BD02368F6
:102C4C003946304604EB030900F060FB814542D164
:102C5C00216830466D1A2946FFF7A6FF01303AD09D
:102C6C0023682B442360D8F800305A6862BBC8F83C
:102C7C0000700FE02268521B20D40B2A17D961195F
:102C8C00A342256018BF5960636808BFC8F80010DC
:102C9C0062514B60304600F02FF804F10B00231DFD
:102CAC0020F00700C21A1CBF1B1AA350AFE76268C2
:102CBC00A3420CBFC8F800205A60EBE723466468B7
:102CCC00AEE73C467F68B6E71A465B68A342FBD189
:102CDC0000235360DEE70C233046336000F00CF821
:102CEC0094E70560D6E700BF940200200148FFF787
:102CFC0011BF00BF8C0200200148FFF70CBF00BFC2
:102D0C008C0200202DE9F0471F468E688246BE4299
:102D1C000C4690460B682DD8B1F90C2012F4906F2C
:102D2C0026D06569096905EB4505A3EB010905EB9F
:102D3C00D5757B1C4B446D109D4238BF1D46530509
:102D4C0027D52946FFF752FF064660B34A4621694C
:102D5C0000F0FAFAA38923F4906343F08003A38173
:102D6C0026614E4426603E466561A5EB0905A560CB
:102D7C00BE4200D93E4632464146206800F0ACFACD
:102D8C000020A3689B1BA360236833442360BDE829
:102D9C00F0872A4600F0E6FA06460028E0D15046B5
:102DAC002169FFF7B9FE0C23CAF80030A3894FF054
:102DBC00FF3043F04003A381E9E700002DE9F04F19
:102DCC0098468B8907461B060D4614469DB010D5B8
:102DDC000B6973B94021FFF709FF2860286130B9EE
:102DEC000C233B604FF0FF301DB0BDE8F08F40234B
:102DFC006B610023099320238DF8293030234FF089
:102E0C000109CDF80C80DFF898818DF82A30234623
:102E1C009A4613F8012B0AB1252AF9D1BAEB040B07
:102E2C000BD05B46224629463846FFF76BFF013034
:102E3C0000F0A780099A5A4409929AF80030002BA6
:102E4C0000F09F8000234FF0FF32CDE905230AF1FB
:102E5C00010A049307938DF853301A9354460522B4
:102E6C0014F8011B4E4800F061FA049AD8B9D00648
:102E7C0044BF20238DF85330110744BF2B238DF80A
:102E8C0053309AF800302A2B15D0544600204FF0BE
:102E9C000A0C079A214611F8013B303B092B4BD900
:102EAC00B0B1079214E0A0EB080309FA03F3134343
:102EBC00A2460493D2E7039B191D1B680391002BB8
:102ECC00BBBF5B4242F0020207930793B8BF049268
:102EDC0023782E2B0AD163782A2B32D1039B023410
:102EEC001A1D1B68039243EAE3730593DFF8B4A041
:102EFC0003225046217800F019FA38B14022049B85
:102F0C00A0EB0A00824013430134049314F8011B14
:102F1C00062225488DF8281000F008FA002836D033
:102F2C00224B1BBB039B073323F00703083303938C
:102F3C00099B334409936AE70C4601200CFB0232CF
:102F4C00A8E700234FF00A0C1946013405932046DC
:102F5C0010F8012B303A092A03D9002BC6D0059161
:102F6C00C4E7044601230CFB0121F0E703AB0093FB
:102F7C002A4638460E4B04A9AFF30080421C064685
:102F8C00D6D1AB895B063FF52DAF09982CE703AB87
:102F9C0000932A463846064B04A900F07DF8EDE76D
:102FAC00A6340008AC340008B0340008000000005F
:102FBC00112D00082DE9F047164698468A680B69D2
:102FCC0007469342B8BF1346336091F843200C4632
:102FDC00DDF820900AB1013333602368990642BFB3
:102FEC00336802333360256815F0060506D104F109
:102FFC00190AE36832689B1AAB422BDC94F8433015
:10300C002268003B18BF0123920630D44146384653
:10301C0004F14302C847013023D02368226903F02E
:10302C000603042B14BF002533684FF0000608BFBD
:10303C00E56804F11A0408BFED1A54F8123C08BFF5
:10304C0025EAE5759342C4BF9B1AED18B5421AD117
:10305C00002008E00123524641463846C84701305B
:10306C0003D14FF0FF30BDE8F0870135C1E73020C8
:10307C00E11881F843005A1C94F84510224402339D
:10308C0082F84310C2E70123224641463846C8471E
:10309C000130E6D00136D9E72DE9FF470F7E914686
:1030AC00782F80460C469A460C9E01F1430207D8B5
:1030BC00622F0AD8002F00F0D380582F00F0BA806E
:1030CC0004F1420684F842703AE0A7F16303152B31
:1030DC00F6D801A151F823F03D3100085131000818
:1030EC00CD300008CD300008CD300008CD300008C0
:1030FC0051310008CD300008CD300008CD3000082B
:10310C00CD300008533200087B3100080D32000826
:10311C00CD300008CD30000875320008CD300008E5
:10312C007B310008CD300008CD3000081532000886
:10313C0033681A1D1B68326004F1420684F8423071
:10314C0001239EE033682068191D3160060601D505
:10315C001D6803E04506FBD5B3F90050002D03DADA
:10316C002D236D4284F843300A23594811E021681D
:10317C003368080653F8045B02D4490648BFADB265
:10318C006F2F336014BF0A2308235148002184F8A1
:10319C0043106668002EA8BF2168A660A4BF21F06A
:1031AC00040121600DB9002E4BD01646B5FBF3F18E
:1031BC0003FB1157C75D06F8017D2F46BB420D4638
:1031CC00F4D9082B0BD12368DF0708D52369616874
:1031DC009942DEBF302306F8013C06F1FF36921B04
:1031EC0022614B4621464046CDF800A003AAFFF7CA
:1031FC00E1FE01304AD14FF0FF3004B0BDE8F0875A
:10320C00236843F0200323607827324884F8457004
:10321C00236831681F0651F8045B02D45F0648BF6F
:10322C00ADB23160D90744BF43F0200323601DB118
:10323C001023ABE72648E9E7236823F0200323603B
:10324C00F6E71646BDE733682568181D61693060DE
:10325C002E061B6801D5196002E06806FBD51980A3
:10326C00002316462361BCE7336800211A1D326027
:10327C001E686268304600F059F808B1801B606027
:10328C0063682361002384F84330AAE73246494639
:10329C0040462369D0470130ADD023689B0713D437
:1032AC00E068039B9842B8BF1846A6E70123324654
:1032BC0049464046D04701309DD00135E36803991B
:1032CC005B1AAB42F2DCEBE7002504F11906F5E7DB
:1032DC00B7340008C8340008884210B501EB02046A
:1032EC0002D98442234607D8431EA14208D011F8C4
:1032FC00012B03F8012FF8E7014602448A4200D162
:10330C0010BD13F8014D02F8014DF7E738B5002355
:10331C00054D044608462B60FDF71CFA431C02D1F0
:10332C002B6803B1236038BD88020020034610B51A
:10333C00C9B202449342184601D1002003E004783C
:10334C0001338C42F6D110BD0A44914200F1FF3397
:10335C0000D1704710B511F8014B914203F8014FA1
:10336C00F9D110BD2DE9F041804615460C4621B926
:10337C001146BDE8F041FFF739BC2AB9FFF7CCFB89
:10338C0000242046BDE8F08100F01AF8854206467C
:10339C0002D8B5EB500FF4D829464046FFF726FC6F
:1033AC0007460028ECD0B5422A46214628BF3246B3
:1033BC00FFF7CAFF21464046FFF7AEFB3C46E0E76D
:1033CC0051F8043C181F002BBCBF0B58C018704799
:1033DC00F8B500BFF8BC08BC9E467047F8B500BFF6
:0833EC00F8BC08BC9E467047C6
:1033F40054656D703A20256C642E2530326C64203F
:10340400432C2048756D69646974793A20256C648D
:103414002E2530326C6425250D0A000054656D702C
:10342400205472616E736D6974204572726F720DEF
:103434000A00000054656D70205265636569766505
:10344400204572726F720D0A0000000048756D20ED
:103454005472616E736D6974204572726F720D0AD5
:103464000000000048756D2052656365697665202B
:103474004572726F720D0A00000000000000000027
:103484000102030406070809000000000102030406
:1034940002030405060708090A0B0C0D0E0F101091
:1034A4000102232D302B2000686C4C0065666745B3
:1034B40046470030313233343536373839414243A8
:1034C4004445460030313233343536373839616259
:0834D40063646566000000005E
:0834DC0070CCFF7F010000002D
:0434E40031010008AA
:0434E8000D010008CA
:1034EC000024F40010000000010000001000002077
:1034FC000000000050010020B80100202002002034
:10350C0000000000000000000000000000000000AF
:10351C00000000000000000000000000000000009F
:10352C00000000000000000000000000000000008F
:0C353C0000000000000000000000000083
:04000005080007D90F
:00000001FF
